:02000002F0000C
:1080000000000420F9820F0021830F0023830F005A
:1080100025830F0027830F0029830F000000000035
:108020000000000000000000000000009DB80F00EC
:108030002D830F00000000002F830F0031830F00FD
:1080400033830F0033830F0033830F0033830F001C
:1080500033830F0033830F0033830F0033830F000C
:1080600033830F0033830F0033830F0033830F00FC
:1080700033830F0033830F0033830F0033830F00EC
:108080003DB90F0033830F0033830F0033830F009C
:1080900033830F0033830F0009B80F0033830F00C1
:1080A00033830F0033830F0033830F0033830F00BC
:1080B00033830F0033830F00000000000000000036
:1080C00033830F0033830F0033830F0033830F009C
:1080D000B1B80F0033830F0033830F0033830F00D9
:1080E00033830F0033830F007DD20F0000000000A8
:1080F0000000000033830F000000000033830F00F6
:10810000000000000000000000000000000000006F
:10811000000000000000000000000000000000005F
:10812000000000000000000000000000000000004F
:10813000000000000000000000000000000000003F
:10814000000000000000000000000000000000002F
:10815000000000000000000000000000000000001F
:10816000000000000000000000000000000000000F
:1081700000000000000000000000000000000000FF
:1081800000000000000000000000000000000000EF
:1081900000000000000000000000000000000000DF
:1081A00000000000000000000000000000000000CF
:1081B00000000000000000000000000000000000BF
:1081C00000000000000000000000000000000000AF
:1081D000000000000000000000000000000000009F
:1081E000000000000000000000000000000000008F
:1081F000000000000000000000000000000000007F
:108200000348044B834202D0034B03B11847704725
:10821000105A0020105A00200000000005480649AE
:108220000B1AD90F01EBA301491002D0034B03B184
:1082300018477047105A0020105A00200000000014
:1082400010B5064C237843B9FFF7DAFF044B13B19E
:108250000448AFF300800123237010BD245A00208E
:10826000000000005CDC0F0008B5044B1BB10449A2
:108270000448AFF30080BDE80840CFE700000000ED
:10828000285A00205CDC0F00A3F5803A704700BF3D
:10829000154B002B08BF114B9D46FFF7F5FF002142
:1082A0008B460F461148124A121A05F019F90C4B69
:1082B000002B00D098470B4B002B00D09847002094
:1082C000002104000D000B4804F0EAFF05F018F847
:1082D0002000290003F040FB04F0E8FF0000080044
:1082E000000000000000000000000420245A0020CC
:1082F00088900020D5D20F000649074A074B9B1AE9
:1083000003DD043BC858D050FBDC03F093F9FFF7C2
:10831000BFFF0000C8DC0F0078590020245A00205D
:10832000FEE7FEE7FEE7FEE7FEE7FEE7FEE7FEE725
:10833000FEE7FEE730B53AB11368DB430A4D01446E
:10834000814204D1D84330BD4FF0FF33F6E710F837
:10835000012B5340082213F0010418BF2C46013AA8
:1083600084EA5303F7D1EBE72083B8ED014B436078
:108370000020704740D80F00084670470020704723
:10838000024B1868003818BF01207047405A00207F
:1083900029DF704728DF704770B50668B36886B07C
:1083A00004460D4673B114220021684605F098F882
:1083B000A36805932379019533B1012B0ED0B368DF
:1083C0006846984706B070BD01238DF800302369D8
:1083D0000293E368039363690493F0E702238DF843
:1083E0000030E3681B030293F5E7074B9988DA88AE
:1083F000914208D1083353E8021FC1EA214143E802
:108400000212002AF7D17047405A00200E4B30B5B7
:1084100043600E4B012003F1180151E8002F42EA9E
:10842000000441E8004595F0000FF6D152B993F8E9
:108430002C1083F8281003F13001C3E902121A61ED
:10844000034A5A61002030BD4CD80F00405A00202A
:10845000DC011C000846704700207047034B93F86E
:108460002000003818BF0120704700BF405A00208C
:10847000044B93F820000122B0FA80F083F8292001
:1084800040097047405A0020436843B10268916830
:108490000B4443605268934204BF0023436070471B
:1084A000BFF34F8F0549064BCA6802F4E0621343DD
:1084B000CB60BFF34F8F00BFFDE700BF00ED00E0D2
:1084C0000400FA054FF08053D3F83001A0F10803FF
:1084D0005842584170474FF08053D3F83021082A52
:1084E00007D1D3F83421052A03D8034B1344187E4F
:1084F00070470020704700BF40D80F00024AD2F8F2
:108500000034002BFBD0704700E0014010B5084B51
:10851000012253E8000F114643E8001494F0000FC5
:10852000F7D1BFF35F8FB0FA80F0400910BD00BFF4
:108530004C5C00200E4B984214D00AD8B8B10D49BB
:1085400048F2165248F20153884214BF10461846AA
:108550007047094B984208D0084948F2165248F231
:108560000353F1E748F20350704748F20250704756
:108570000102F0000002F0000202F0000F02F00021
:10858000024B0020C3F80005704700BF00A0025056
:10859000044B0122C3F80025034B4FF480625A605C
:1085A000704700BF00A0025000E100E0064B00222F
:1085B000C3F80025054B4FF48062C3F88420BFF355
:1085C0004F8FBFF36F8F704700A0025000E100E0B3
:1085D000074B18440122837F1F2B86BF054903F0F8
:1085E0001F034FF0A04102FA03F3C1F80C357047A6
:1085F00040D80F0000030050074B18440122837F2E
:108600001F2B86BF054903F01F034FF0A04102FA5C
:1086100003F3C1F80835704740D80F00000300503D
:1086200010DF704711DF704713B50C4B0C4A0093F5
:108630000C4B934208BF002304460193019808B9EC
:1086400002B010BDD0E900212046904718B168461D
:10865000FFF71AFFF2E71120F2E700BF64D80F001E
:10866000A0DC0F0098DC0F0013B50A4B0A4A0093F8
:108670000A4B934208BF002304460193019B0BB9A8
:1086800002B010BD2046D3E9002190476846FFF7AD
:10869000FBFEF3E770D80F00A8DC0F00A0DC0F0092
:1086A00008B5FFF7FDFE60DF704769DF704761DFE7
:1086B000704730B5124DADF5017D4FF4FA740DF1F0
:1086C000020103A8ADF80240FFF7F1FF88B90D4B96
:1086D0000D4A0195934218BF18460290029B002B49
:1086E000EDD003A8D3E90021904701A8FFF7CCFE05
:1086F000F4E7052801D0FFF7D3FE0DF5017D30BD6D
:108700007CD80F0090DC0F0098DC0F00024B93F830
:10871000103203B1CDE77047405A00204BDF70475D
:108720007FB50E4D0E4C0F4E01A8FFF7F7FF78B93D
:10873000B44218BF204602950390039B002BF3D050
:108740000198D3E90021904702A8FFF79DFEF4E7C6
:10875000052801D0FFF7A4FE04B070BD88D80F0033
:10876000B8DC0F00C0DC0F000A4908B50223C1F8CD
:108770000435BFF36F8FBFF34F8FC1F80805FFF7C4
:10878000BDFE0023C1F80435BFF36F8FBFF34F8FD9
:1087900008BD00BF00E0014070B50E4E0123154634
:1087A000C6F80435BFF36F8FBFF34F8F0024AC4280
:1087B00007D10023C6F80435BFF36F8FBFF34F8F87
:1087C00070BD51F8243040F82430FFF797FE013493
:1087D000EDE700BF00E00140024B012283F81122C7
:1087E000704700BF405A0020024B012283F812223A
:1087F000704700BF405A002008B5FFF751FE70B522
:108800000546C1F30B00B8B9B5F57F2F14D80C4E4F
:10881000D6F81422072A11D8130103F1804404F575
:10882000F0340132C4F80058C4F804180221C4F826
:108830000818C6F8142270BD0720FCE70420FAE7E8
:10884000405A002038B1054B0360054B43600123BB
:108850000372002070470E20704700BF65880F002C
:10886000BD880F0070B504460D4601B30B78012B8F
:1088700006D01ED9033B012B94BF0820112070BDE8
:108880000D4ED6F8643390B1013312D10022182175
:108890000430FFF74FFD07222060214606F559708E
:1088A000FFF776FD0028EAD102232B70E7E70E20C0
:1088B000E5E70820E3E700BF00F00F0069B10B789F
:1088C000022B0CD1022804D0032814BF0820112049
:1088D000704703230B70002070470E20704708205C
:1088E000704741DF70471FB5184991F818325BBBDC
:1088F0004FF08043A024D3F81824D2035CBF012298
:108900009A60134B0022C3F80021D3F800010390B2
:108910000398C3F84021D3F8400102900298C3F8AD
:108920004421D3F84401019001980A4880F8244377
:10893000102444600220C3F8082501229A601A60BE
:10894000C3F8040381F8182204B010BD405A002077
:108950000040024000E100E037B56FF07F42154C67
:10896000057BD4F804358A4228BF0A46891A134485
:108970004A1E942A23F07F4305F5A8729BBF963BBD
:1089800096314160416044F822300B4B4FF4F8605F
:1089900043F001039847094BAA00134400221A60D0
:1089A0001B680193019B4FF48033AB40C4F8043340
:1089B00003B030BD00400240A0D80F00404102404B
:1089C0000A4AD2F800347BB109480023D2F80815CE
:1089D000D940C90748BF03F5C07103F1010348BF7F
:1089E00042F82100072BF1D1704700BF0000014081
:1089F0003546526EE4E738B5114BD3F80024CAB1BE
:108A0000D3F804450F4D40F616518C42B8BF0C46C2
:108A1000A4F54864FFF7D4FFAC61FFF764FF284674
:108A2000094B40F8103F2146FFF796FF074B4FF4E4
:108A300080321A60064B012283F8192238BD00BF2C
:108A40000000014078590020F5890F0000E100E0A6
:108A5000405A00200023C0E90232C0E900118B888F
:108A60001A440261B1F906301A444261088800389C
:108A700018BF0120704710B54268118803460029CD
:108A800039D002F110014160148A2CB9C268016822
:108A9000FFF7E0FF204610BD9078118900F0300408
:108AA000302C1BD1947C04F03004302C1DD19088E4
:108AB0001969091A19610021907810F0300F02BF6E
:108AC000986801309860908A0844196901441961D6
:108AD000B2F91620114459610120DCE700F0F004DE
:108AE000202C02D150894143E6E700F0C0008028E5
:108AF00008BF0421E0E70846CDE743681A44426016
:108B000011B101399A4201D10120704713F8010BCC
:108B100001F8010FF6E730B5044685B01546A9B94E
:108B20000268124B9A4211D0102D06D82A46694687
:108B30002046FFF7F0FF05B030BD10226946204601
:108B4000FFF7E9FF0028F6D0103DEDE7A368AB4240
:108B500001D20020EFE723682A46204698470028E4
:108B6000F7D0A268521BA260E5E700BFFB8A0F00A6
:108B700010B5836804460BB9002010BD03680122BC
:108B800098470028F8D0A368013BA360F5E72DE9DA
:108B9000F3410F460DF107018046FFF7E9FF054657
:108BA00020B90025284602B0BDE8F0819DF90730C4
:108BB0009DF80740002B13DA04F07F0407260DF11F
:108BC00007014046FFF7D4FF0028EAD09DF80720B0
:108BD00002F07F03B3401C43130606F1070601D4DD
:108BE0003C60DFE7232EEAD1DBE72DE9F3410025E6
:108BF00080460E462F462C460DF107014046FFF7F2
:108C0000B7FFC0B19DF807C0A4F120030CF07F02AC
:108C1000C4F1200102FA03F322FA01F10B43A2404E
:108C20001CF0800F45EA020547EA030704F1070438
:108C300004D1C6E9005702B0BDE8F081462CDBD173
:108C40000020F8E713B50446052924D8DFE801F031
:108C5000030F16232321012201A92046FFF75BFF02
:108C600018B19DF90430002BF5DB02B010BD0822CD
:108C70000021204602B0BDE810404CE701A9FFF7F3
:108C800086FF0028F1D0019A00212046FFF743FF1C
:108C9000EBE70422ECE70020E7E773B50D4601A9F6
:108CA0000446FFF774FF064618B90026304602B0A6
:108CB00070BD94E80F0085E80F0001998A42F4D353
:108CC000A960A3685B1AA360F0E737B50D46694653
:108CD0001446FFF78AFF30B12B89082BDDE900121B
:108CE00003D1C4E9001203B030BD042B4FEAE17098
:108CF00009D121600B460246824208BF8B420CBF5D
:108D000001200020EFE7022B03D10BB22380DA17FA
:108D1000F2E7012B02D14BB22370F8E70020E2E723
:108D200037B50D4669461446FFF75FFF70B12B89D2
:108D3000082B0DD1DDE90032C4E90032DDE9000184
:108D4000914208BF98420CBF0120002003B030BD03
:108D5000042B03D1009B23600022EFE7022B03D1F9
:108D6000009B23809BB2F7E7012B04D1009B23706B
:108D700003F0FF03F0E70020E8E773B50E4669460D
:108D80001546FFF732FF78B1DDE900245308D2071A
:108D9000328943EAC4734FEA540444BFDB43E443DB
:108DA000082A03D1C5E9003402B070BD042A09D1F4
:108DB0002B601A46D917A14208BF9A420CBF012066
:108DC0000020F1E7022A04D119B229800A46C91706
:108DD000F1E7012A02D159B22970F7E70020E3E751
:108DE00013B5144604220DEB0201FFF794FE08B1FF
:108DF000019B236002B010BD13B5144669460822DA
:108E0000FFF789FE18B1DDE90023C4E9002302B0B1
:108E100010BD73B50D4601A906461446FFF7B7FE0F
:108E200098B1019AB2F5803F11D2AB7803F0C0033C
:108E3000802B02F102010AD02B898B4207D32146F5
:108E4000304621F8022BFFF766FE02B070BD00200D
:108E5000FBE7F7B50E4601A907461546FFF797FE53
:108E6000A0B1019A511C4FF0000404D2B37803F072
:108E7000C003802B01D1204608E033898B42FAD30E
:108E800029463846FFF747FE019BEC5403B0F0BD7E
:108E90006CDF70476DDF704772DF704773DF7047BC
:108EA00074DF704775DF704776DF70477ADF704791
:108EB0007CDF70477DDF70477FDF704786DF70475C
:108EC0008FDF704790DF7047A8DF7047AADF7047D9
:108ED000ADDF7047AEDF7047B0DF7047B1DF70477E
:108EE000B5DF704762DF704766DF704713DF70479A
:108EF00070B518228CB000210DEB020004F0F0FADE
:108F00002823264C08931623ADF806300023CDE91C
:108F10000333059304F21A2302930223062284F8F2
:108F20001A3284F81E325923012584F81C2284F851
:108F30001F320322FE23092684F81B5284F81D22C7
:108F400084F820320DF1060104F223208DF8185028
:108F50008DF82D50ADF80C60FFF7ACFFE0B9BDF80F
:108F6000063084F822625A1984F82122BDF80C20B8
:108F70000B4C134402A906AA04F12000ADF80C30F2
:108F8000FFF78AFF40B994F82000FFF789FF94F8B3
:108F900020002946FFF782FF0CB070BD405A002028
:108FA0007859002043690BB1C0681847704737B53E
:108FB000054C009325681346ED680A460146204695
:108FC000A84703B030BD00BF105A002018DF70471B
:108FD000024B0620D3F83C32184700BF405A00200D
:108FE0004FF44053074A5968914201BF986800F610
:108FF000FF7020F47F6020F00F0018BF4FF4805006
:10900000704700BFDBE5B15108B5FFF7E9FF054B3D
:10901000D3F85832184400F6FF7020F47F6020F037
:109020000F0008BD405A002010B55B68DA680E4B8F
:109030009A4209D10D4BD3F8C02512B9D3F8C425F3
:109040001AB1002283F8C82510BDD0E901211144CE
:1090500012F9014B002CA1EB0200F9DBC3F8C0258B
:10906000C3F8C4050122EDE7A8D80F00405A00203C
:1090700010B54FF44053164C5968A142024624D013
:1090800000F500535B68181B43424341A142184658
:109090001AD102F500535A688A4215D14FF4405252
:1090A0001178142982BF50690A4AB0FBF2F01A788D
:1090B00098BF0020142A83BF5B69064AB3FBF2F312
:1090C0000023C01A18BF012010BD0023DEE700BF37
:1090D000DBE5B15140420F0090F8552012F0FB0F34
:1090E00009D190F8643033B1836EDBB10E4A0120B0
:1090F000C2F8CC35704712F0010303D090F8563017
:1091000003B1836D9207F0D590F85C20002AECD073
:10911000064A016EC2F57E22914201D80B44E4E773
:10912000042070470F207047405A002000800F0035
:1091300030B4054C23681D690A46AC46014600233D
:10914000204630BC604700BF105A00202DE9F04790
:109150001F46194B4360DDF8208004460D46164635
:1091600001F02AFA60B9DFF85490C4F800904DB1CC
:10917000A6B1636832465B6829462046984750B1DD
:10918000BDE8F08748F21050FAE748F21450F7E7CC
:1091900048F20250F4E723684B45F9D16368D8F8E8
:1091A0000010DA689142F0D34246394620469B6867
:1091B000BDE8F047184700BF58D90F006E52464827
:1091C000044B53E8011FC1EA014143E80112002AA0
:1091D000F7D17047485A002013B5114B53E8012FBF
:1091E00094B2D9890C4499898C4228BF641A198990
:1091F0008C4202BFBFF32F8F002307E0C4EA0204B2
:1092000043E801410029E9D14FF001038DF8033013
:109210000192019B03609DF8030002B010BD00BFE6
:10922000485A002070B5EFF3108672B60E4AD2F895
:10923000D8450123B4B9C2F8D8350C4B0C4DD3F83E
:1092400080102940C2F8D015C3F88050D3F884109C
:10925000C2F8D4154FF0FF32C3F88420047006B969
:1092600062B670BD0370FAE7405A002000E100E0EA
:10927000FC06FFBD10B5064B002253E8001F01EAB3
:10928000020043E8000494F0000FF6D110BD00BFC7
:10929000405A002008B5FFF7EDFF002008BD2DE97A
:1092A000F0431D4687B0154B80460F4616464FF0DB
:1092B000010953E8004F44EA090243E8002191F014
:1092C000000FF6D1BCB9AA0831463846FFF764FA58
:1092D000FFF7D0FFD8F808304BB10E9A8DF8009008
:1092E000CDE90147CDE903650592684698472046D8
:1092F00007B0BDE8F0831124F9E700BF405A002011
:109300002DE9F0431546984687B0174B81460E4627
:10931000012253E8004F44EA020143E8001090F0B4
:10932000000FF6D1ECB92746BD4214D1FFF7A2FFDA
:10933000D9F808305BB102228DF800200022CDE977
:109340000126CDE90325CDF81480684698472046CC
:1093500007B0BDE8F08306EB0730FFF705FA0137E9
:10936000E2E71124F3E700BF405A0020F8B5094EA8
:10937000094CA41B0746E40800250436AC4200D182
:10938000F8BD56F83530384698470028F8D10135F1
:10939000F4E700BF68DC0F0070DC0F00831F012BB7
:1093A00010B5044602D80020FFF7E0FF044BD3F8C5
:1093B000DC351BB12046BDE81040184710BD00BF8A
:1093C000405A00207FB50023CDF80B308DF80F30C8
:1093D0000A4BADF80610B3F8EC35ADF808300123B0
:1093E0008DF80A300DF10603CDE90430044B02A9D3
:1093F000588CFFF76FFD07B05DF804FB405A002062
:109400007859002010B5044686B000210D2202A82C
:10941000019104F065F82378082B0ED1384AB2F890
:10942000F435B2F8F615013B9BB2A2F8F435E9B178
:10943000E3B90323A2F8F4152370627823788DF83A
:1094400005306021012A8DF804108DF806200FD018
:109450000B2A13D12A4B002193F8F8258DF8072009
:1094600083F8F815042101A8FFF7ACFF06B010BD82
:10947000062B05D0082B29D0032B27D00321F2E798
:10948000E1688DF80710D4E90123080A8DF8080077
:10949000080C090E8DF80A10110A8DF80B208DF8B2
:1094A0000C10110C120E8DF80E201A0A8DF80F30C8
:1094B0008DF810201A0C1B0E8DF80D108DF8090078
:1094C0008DF811208DF812300F21CCE7D4E901235B
:1094D000110A8DF807208DF80810110C120E8DF866
:1094E0000A201A0A8DF80B308DF80C201A0C1B0E6E
:1094F0008DF809108DF80D208DF80E300B21B2E794
:10950000405A002010B50A4BD3F8D82572B168B97B
:10951000EFF3108172B6074AD3F8D0451460D3F840
:10952000D4455460C3F8D80501B962B610BD00BF78
:10953000405A002000E100E073B51F4D95F82C3033
:10954000B3B3012085F8F905FFF76EF811284FF045
:1095500000062FD00220FFF787F80DF107008DF8E5
:109560000760FFF75FFEFFF75DF804469DF8070010
:1095700085F82C60FFF7C6FF6CB9D5F8D83585F8AB
:10958000F9455BB1D5F8D03523F48003C5F8D03563
:109590000320FFF769F8204602B070BD074B4FF477
:1095A0008002C3F88020BFF34F8FBFF36F8FEFE7C8
:1095B0000824F0E73446EEE7405A002000E100E0DE
:1095C00038B51549D1F8FC35024613F0010022D018
:1095D000124882421ED0124A508C4FF6FF74A042AD
:1095E00013D043F00403C1F8FC351321FFF75CFCF2
:1095F00088B90C4DC82445F001054FF47A40A847BE
:10960000013CFAD1BDE8384096E792F82000FFF718
:1096100047FCF7E7002038BD405A002068DC0F0007
:109620007859002070D90F0037B5254D95F82C409A
:10963000002C42D10123204685F8F935FEF7F4FFCE
:10964000112837D02046FFF70FF81E4B8DF8034046
:10965000D3F8360101900DF10300FFF7E3FD1A493D
:1096600001A8FEF7DDFF0446B0FA80F0400985F856
:109670002C009DF80300FFF745FFDCB9134985F87E
:10968000F94591F816335A09EC231341DB0706D547
:10969000D5F8D8352BB94FF480030B6007E0FEF7FF
:1096A000FFFED5F8D03543F48003C5F8D03501204E
:1096B000FEF7DAFF204603B030BD0824FAE700BF0A
:1096C000405A002040D80F00A1860F0000E100E0C2
:1096D00038B5264C94F82030002B45D0022B09D108
:1096E00003282CD00022D4F8003662621A793AB1ED
:1096F000012A1ED094F8293053BBBDE838403CE025
:10970000D3E905128D1A142D94BF521914329A619F
:109710009142EFD102284FF0000314BF0D211946EA
:10972000D4F8000684F82030FEF736FEFEF75DFE22
:10973000E0E71A6901321A615B699A42E9E7636AF4
:109740000133082B01D86362D4E700236362E1E7A9
:1097500094F8F93543B194F82C3013B1BDE8384092
:10976000EAE6BDE838405FE738BD00BF405A002058
:10977000831E012B00D8ABE7704737B5394C94F8FE
:109780002030002B31D104F1080353E8022F1FFAD7
:10979000A2F0D988884202BFBFF32F8F00230DE0CB
:1097A000D98908449989884228BF401AC2EA0040F2
:1097B00043E802010029E8D14FF001038DF803309E
:1097C0000192019A9DF80330626003F0FF012BB90A
:1097D000C4F800160023E36103B030BDA36803EBB7
:1097E0001243C4F80036002BF4D00223D4F80056FC
:1097F00084F820302B7973B1012B23D00321284624
:10980000FEF7CAFD002384F82030E36103B0BDE811
:109810003040FEF7EABDD5E90523D21A142AD5E96E
:10982000031028BF14229208012A38BF01221944CC
:109830001844FEF7ADFD58B11128DFD1012384F89B
:109840002030C9E7D5E903031844FEF7A3FDF2E78A
:1098500094F82830002BBFD1022003B0BDE830407F
:1098600036E700BF405A00200A4930B401F11C031A
:10987000012253E8000F40EA020443E8004595F056
:10988000000FF6D120B991F829300BB930BC74E73C
:1098900030BC7047405A002000F0FD03012B09D175
:1098A000054B002283F82920421E5042504183F884
:1098B000280062E7704700BF405A002013B500231C
:1098C00004460DF107008DF80730FFF7ABFC094A9D
:1098D0000948D2F80436591CC2F80416241AF42098
:1098E000B4FBF0F41C709DF80700FFF70BFE02B00C
:1098F00010BD00BF405A0020C06F0020DEE708B551
:1099000010461A4603F052FD002008BD08B5104667
:109910001A4603F04BFD002008BDF0B51F4F204D47
:10992000204CED1B012391B0ED0884F80C36002685
:10993000B5422CD1022384F80C361B4A1F2312F89F
:10994000011B0DF80310013BF9D2184920230DF13A
:109950003F0211F8010B02F80109013BF9D1C4F8EB
:1099600010366946124B1348C4F81436202203F00F
:109970001DFD20220DEB02010F4803F017FD0F4BD8
:10998000C4F81036012384F8583611B0F0BD57F8EA
:10999000363098470028D0D10136C9E760DC0F0087
:1099A00068DC0F00405A00207CD90F009CD90F00C2
:1099B000BCD90F0058600020786000207052464DDE
:1099C0002DE9F341274D002604460DF107008DF8DF
:1099D00007600F46FFF726FC95F85936B5F85C1678
:1099E00095F85A068842C2B238BF561CDBB238BF5F
:1099F000F6B2B3422FD095F85A6695F85A26D3B2EC
:109A0000914286BF0133DBB2002385F85A369DF8B8
:109A10000700FFF777FD4FF6FF739E4220D0D5F881
:109A200060264FEAC60842F8367002EBC601ACB1B8
:109A3000D5F86436B5F86806182206FB00302146D2
:109A400003F0B4FCD5F86036434418229A80002015
:109A500002B0BDE8F0814FF6FF76D8E78C80F6E7DC
:109A60000420F5E7405A002070B50388232B8AB004
:109A7000044635D80F2B04D8012B00F01B810AB007
:109A800070BD103B132BFAD801A252F823F000BF8F
:109A9000119B0F00319B0F007F9A0F00539C0F000A
:109AA000B59D0F007F9A0F007F9A0F007F9A0F00DD
:109AB0007F9A0F007F9A0F00C39D0F007F9A0F00BF
:109AC0007F9A0F007F9A0F007F9A0F007F9C0F00F4
:109AD0007F9A0F008D9C0F007F9A0F00439C0F0010
:109AE000503B9AB2062ACAD8062BC8D801A252F80F
:109AF00023F000BF5F9B0F00C19C0F00C39D0F00B0
:109B00007F9A0F007F9A0F00079C0F00A19C0F0007
:109B1000AF4D83886B84AF4BD3F86C360BB101200B
:109B20009847AD49688C0AB0BDE87040FFF7BAB9F4
:109B3000A74BA84C4FF6FF725A84D4F8FC3559074E
:109B400004D4FFF7D5F908B1FEF7AAFCD4F86C36B7
:109B5000002B94D002200AB0BDE8704018479D4EFB
:109B6000E288B6F8E4359A4289D1002504A88DF838
:109B70001050FFF757FBD6F8042606F5CE639A423D
:109B800012D9511EC6F8041612F8012C934DF42375
:109B900002FB035506F2816396F808265B1ADBB2D6
:109BA0009A4238BF86F808369DF81000FFF7AAFCE5
:109BB000002D3FF464AF228A04F11201284603F01D
:109BC000F5FB1822002104A803F08AFC08238DF875
:109BD0001030834B0593834B0693834BCDE90735B8
:109BE000238AADF82430B6F86836172B03D82846F8
:109BF000FFF764FE43E77D4904A8FFF7E1FE002874
:109C00003FF43DAFF3E7E188F62918D8CB1E9A0759
:109C10000DD0CB1F9BB2013B5A4202F0030203F06E
:109C2000030301F1FF3158BF5342C91A89B2684B8F
:109C3000588CFFF755F900283FF421AF84E7F7214E
:109C4000F5E7002202A98088CDE90222FFF73AF960
:109C5000F1E70223049301AB05935D4B5C8C04AAEE
:109C600042F605212046FFF733F9034600287FF42A
:109C70006BAF024685212046FFF71EF9DBE7544B08
:109C800000F10801588CFFF70DF9D4E7002369466D
:109C900080888DF800308DF80130FFF711F9CAE7A0
:109CA000A379002B7FF4EBAE494B1321588CFFF7BF
:109CB000FBF8C0E7464B0021588CFFF715F9BAE7CF
:109CC000A379002B3FF4DBAE022B7FF4D8AE414EDC
:109CD0002189B6F8EC2591427FF4D1AEA27B012A0E
:109CE0007FF4CDAE0493029301AB4FF48032039323
:109CF000374B0592228A5D8CADF81820628AADF848
:109D00001A2004F114020792B6F8F01502AA2846A8
:109D1000FFF7DEF860B9BDF80430DB0708D440F285
:109D2000FD1304A92846ADF81430FFF7D5F8A6E6D0
:109D3000002304A92846ADF81430FFF7CDF80146FA
:109D400000287FF49CAE182204A803F0C9FB237DF1
:109D5000234A0592022B234A8DF81030069222D016
:109D6000062B10D0012B10D1B6F8F635A6F8F43535
:109D7000637DD4F816200893012B099205D11C4865
:109D8000FFF7F4FA01E0637D0893069B002B3FF494
:109D900076AEB6F86836172B7FF671AE134904A875
:109DA000FFF70EFE6BE6B4F81530A6F8F635A6F808
:109DB000F435EAE700231A4619468088FFF77EF853
:109DC00039E70023A0881A461946FFF787F832E7DB
:109DD00078590020405A0020C8D90F00C06F0020D9
:109DE0002060002005940F00FD980F002DB30F0098
:109DF00068DC0F0013B5134C1422002104F1180085
:109E000003F06EFB04F1080353E8021FD888B1EB9E
:109E1000314F4FF0000217BF89B240EA004041EADB
:109E2000004004E05968B1EB314F08BF012243E81C
:109E300002010029E8D18DF807209DF807300020A5
:109E400002B010BD405A00202DE9F347824601A818
:109E50000F4616461D46FFF7BFF918B3124BBDF863
:109E60000480D3F8089019EB08041BD01C220021B1
:109E7000204603F035FB0023237149F808A00A9B14
:109E8000BDF80420A360BDF8063065619A42C4E9BC
:109E9000036701D1FFF794F9FFF7E6FC002002B059
:109EA000BDE8F0870420FAE7405A00202DE9F34787
:109EB000824601A80D4616461F46FFF78DF910B3DE
:109EC000124BBDF80480D3F8089019EB08041AD09F
:109ED0001C220021204603F003FB0123237149F8D3
:109EE00008A0BDF80420BDF80630A7602D0B9A42EB
:109EF000E560666101D1FFF763F9FFF7B5FC00206B
:109F000002B0BDE8F0870420FAE700BF405A002005
:109F100030B54268927802F00F01082987B00346F5
:109F20001ED103691C6800250CB907B030BD236839
:109F30002573996862686846FEF78CFD6368049330
:109F400004F10C0305938B7803F0C003802B08BF4A
:109F5000231D684608BF0493FFF7DAFFA468E3E710
:109F600012F0C00125D102F0300010280FD15A693B
:109F700011705A6818699378D46803F00F03072B9F
:109F80000AD10146204607B0BDE8304019E09006EE
:109F9000EFD55B691980C8E71289214624B107B063
:109FA000BDE8304003F002BA07B0BDE8304003F02E
:109FB00097BA8029B9D10069002192060160B4D511
:109FC000E7E77FB50A4601466846FEF743FD30B134
:109FD0006846FFF79DFF6846FEF74DFDF7E707B0BF
:109FE0005DF804FB2DE9F0435768BB7813F0C0041B
:109FF00089B006468C46154603D0402C6ED000240E
:10A000000EE0644903F00F0201EB820103F030031C
:10A01000202BD1F8908128D006D8CBB1102B1ED0A0
:10A02000204609B0BDE8F083302BF9D16B6939883F
:10A030001980072A0AD16B6828691A89214603F01A
:10A040004FFA6B682969D868FFF7BBFF2A6942E0BD
:10A050002A693946434609B0BDE8F04318476B69A1
:10A0600001221A702A696968F4E7BCF1020FD5F879
:10A07000149024D1042A22D804A9FEF70EFE044627
:10A080000028BCD0069B2BB16968B9F800304A891A
:10A090009A4205D8059B7360069B002BC0D0AEE7A3
:10A0A00008892A6903FB002204A8C04728B1B9F82F
:10A0B00000300133A9F80030E4E70446EAE7B9F8D4
:10A0C00000307A899A429AD92A693989581CA9F8A4
:10A0D000000003FB012269683046BBE7D2F810801C
:10A0E000474657F8043B23B909B0BDE8F043FEF7F3
:10A0F000A9BD022915D104A9FEF7CFFD00283FF420
:10A100007EAFD8F8003069683A4604A898470446FC
:10A1100000283FF474AF069B002BF2D1059B7360BF
:10A120007EE7012926D005292CD000297FF467AFCE
:10A130000C460DF1040901340B2C3FF460AF0122F1
:10A1400049463046FEF7E7FC00283FF458AF19F9BE
:10A15000013B002BEFDB104B049301ABCDE9053441
:10A1600000230793D8F8003069683A4604A8984756
:10A17000044655E7082201A9FEF7CDFC0824002873
:10A18000E9D13CE704220DEB0201FEF7C4FC0424F4
:10A19000F5E700BF40D80F00FB8A0F002DE9F04F14
:10A1A0008FB00446002702A8CDE90077FEF752FCE5
:10A1B0004FF00109A36833BBDDE9033402A89D78A1
:10A1C000FEF759FC0028F7D115F0300F03D1039B9F
:10A1D0001B8803B10134002C72D063096946002248
:10A1E000934267D10EAA02EB830304F01F044FF0E1
:10A1F000FF30C4F1200420FA04F453F8380C231A79
:10A200005842584108E008A92046FEF7C0FC30B982
:10A21000A368002BD0D000200FB0BDE8F08F089EBF
:10A22000DDF80CA0002EC7D04FEAD60806F00706CE
:10A23000039B1A88904504D19B7803F00F02082AEB
:10A240005FD102A8FEF717FC039DAA45F0D1474550
:10A250000DD8039A937803F00F03082B35D002A88A
:10A26000FEF709FC039B9D42F3D14FF0FF373146C7
:10A270002046FEF7E7FC00289CD1CCE799680B88C4
:10A2800098453CD16A6808A8FEF7E4FB6B680C931C
:10A2900005F10C030D938B7803F0C003802B04BFF2
:10A2A0002B1D0C9308AA85F80C9031462046FFF729
:10A2B00099FE22E051F8040B0130ACD101328FE756
:10A2C0000120A9E79A45D2D074E717884745CED830
:10A2D000069BD4F808A01D68A368002DF2D09A450B
:10A2E0007FF468AF2B68D3F800B0BBF1000FC5D086
:10A2F0003346424629462046D84700288BD0AD68D1
:10A30000EAE713F0300F0FD1049B3F2B0CD85A090A
:10A310000EA901EB820203F01F0352F8381C09FA60
:10A3200003F30B4342F8383CE56825B102AB3246F3
:10A3300041462046A84702AA31462046FFF752FE72
:10A3400099E770B586B0CE6801920D4602A9044621
:10A35000FEF7A3FC90B1E86880B1AB78019A03F0F6
:10A360003003202B04D111463046FFF72AFE019A14
:10A37000314602A8FFF712FF039B636006B070BD71
:10A38000F8B537480668741C52D0582100220430B2
:10A39000FDF7D0FF311A4E424E41324F324D3C68EC
:10A3A000621C59D000225821381DFDF7C3FF84429A
:10A3B00040D17C68012C0AD00022C32107F5187017
:10A3C000FDF7B8FFD7F85C321B1A5C425C419EB3C4
:10A3D000234926484FF4607202F0E8FF54B1244943
:10A3E0002448542202F0E2FF234924484FF43272F9
:10A3F00002F0DCFFD5F84442012C2CD12049402248
:10A4000001F5E47002F0D2FF1E491C2201F5E47050
:10A4100002F0CCFF1C4985F8E1440023042201F23C
:10A42000862085F8A03485F8223502F0BFFF0FE0C2
:10A430000026B2E70024CAE724B10A490B484FF4CA
:10A440006072D5E709484FF46072002103F048F8C4
:10A450000223C5F84432F8BD002EF3D00024B7E73C
:10A4600000F00F0000E00F00405A0020805C002048
:10A4700004E00F00845C00205CE00F00DC5C002046
:10A48000DC5D00201C5E00209C5C002010B5094CA7
:10A490004FF40072FF2104F5277003F021F8202209
:10A4A000002104F51E7003F01BF80023C4F870327D
:10A4B00010BD00BF405A002008B50C22002103F057
:10A4C0000FF8024B0022C3F8702208BD405A00204A
:10A4D00070B5344C344ED4F87832C4F8A83904F549
:10A4E00027720021314BC4F8A42904F284604FF490
:10A4F0004772C4F8AC3984F8C815C4F8C015C4F85C
:10A50000C415C4F8A06902F0EBFF294804F2846185
:10A51000FFF757FD264904F2846204F51A60FFF73D
:10A520003DFE10B90025284670BD94F8C855002D91
:10A53000F8D094F8F03794F8841643B30029F1D199
:10A5400094F8F637002BEDD0D4F8C025D4F8C435F4
:10A55000C4F8A42904F5FF604FF4B272C4F8A83916
:10A56000C4F8AC19C4F8A06902F0BAFF114804F5A8
:10A57000FF61FFF726FD0F4904F5FF6204F51A603D
:10A58000FFF70CFE0028CDD004F5FF6307E000299B
:10A59000C8D094F88A36002BC4D004F28C63C4F877
:10A5A000B039C0E7405A0020FB8A0F0029900F0005
:10A5B000F4D90F00A8D80F0008B5083001F06CFDE1
:10A5C000BDE80840FDF7B6BF2DE9F04105460E464F
:10A5D0001446FDF79BFF40B3FDF7DAFFDFF8588024
:10A5E0000835B4F5805F274628BF4FF480573146C1
:10A5F0003A46404602F0DAFE3A464146284601F025
:10A6000065FDE41B3E4470B9002CEAD1FDF7CEFF96
:10A61000BFF35F8F074B0022C3F80C222046BDE832
:10A62000F041FDF787BF0446F0E748F20450BDE86B
:10A63000F08100BF405A0020F47F002070B51368FD
:10A640001F2B05460E46144617D9FDF75FFFB8B11C
:10A65000314605F10800FDF79BFF01F089FDFDF78C
:10A66000A5FFBFF35F8F084B0022C3F80C22FDF754
:10A6700061FF08B92023236070BD48F21450FBE746
:10A6800048F20450F8E700BF405A002038B50A4BA2
:10A690000025C3F80C52BFF35F8F084C0123C4F8A8
:10A6A000003501F095FDC4F8005520B1052848F2A9
:10A6B000035018BF032038BD405A002000A00250AC
:10A6C00010B507282FD8DFE800F004262E2E2E0420
:10A6D0002E044FF0A0430324C3F834470020C3F8EE
:10A6E0003847C3F83C47C3F84047FDF785FF0120D2
:10A6F000FDF782FF0220FDF77FFF2046FDF77CFF7C
:10A700000020FDF765FF0120FDF762FFBDE8104066
:10A710000220FDF771BF0120FDF76EFFBDE810407C
:10A720000220FDF755BF10BD2DE9F041B64DD5F81B
:10A73000FC35DA0794B000F1648105F5CE63C5F805
:10A740000436C5F86C061123013BDBB2FF2B40F049
:10A750004C810023CDE90E3385F808360893109319
:10A760000DA802230D93FEF731FC0446002840F0AB
:10A770003881A648FEF7BAFB0446002840F0318134
:10A78000FEF752FF0446002840F02B81A04B0893AF
:10A7900001460C220DA802F0A3FE01260623089A0A
:10A7A000ADF838300DA920208DF834608DF8366072
:10A7B000FDF77BFF21460C220DA802F091FE089ABE
:10A7C000ADF836400DA940208DF83560FDF76DFFDE
:10A7D00021460C220DA802F083FEF723089AADF85B
:10A7E00036300DA923208DF83460FDF75EFF214639
:10A7F0000C220DA802F074FE089A8DF834600DA9A1
:10A800003046FDF752FF21460C220DA802F068FEEB
:10A810004FF4B063089A0D930DA9A120FDF745FFF1
:10A8200021460C220DA802F05BFE9DF83430089AF8
:10A8300064F300030DA9A0208DF83430FDF735FF37
:10A8400008A8FDF730FF0446002840F0CA80024601
:10A850001821704885F81062FDF76CFD6E49D1F83B
:10A86000643398420BD16D481C2201F5597102F0F6
:10A870009DFDD5F8FC3543F00203C5F8FC351123E6
:10A880000DA88DF82030FEF705FB0446002840F0A7
:10A89000A8809DF835300DA801338DF83530FEF7CE
:10A8A000F7FA0446002840F09C80D5F8FC359B0759
:10A8B00040F1A280D5F8CC09594982B208A8FEF728
:10A8C000F7FA0446002840F08C805648FEF7EEFA6E
:10A8D0000446002840F08580534B4FF6FF725A849F
:10A8E00001204FF65963514A8DF80A0002A9ADF8CC
:10A8F0000830FEF7E9FA0446002872D14C4B04AA4E
:10A9000003F11007164618685968144603C4083343
:10A91000BB422246F7D147493046FEF7E3FA0446E8
:10A9200000285ED101461C220DA802F0D9FD9DF839
:10A930003430B5F8E0058DF8044043F004038DF899
:10A9400034300223ADF80C3095F8E2358DF80E3036
:10A9500003238DF80630F423CDE90A444FF01108A3
:10A96000ADF82C3003AF344B0C9401AE08AA0DA9FE
:10A970008DF8058008970996FEF7A8FA044680BB73
:10A9800001461C220DA802F0ABFD18238DF83430CF
:10A990000123ADF80C3095F8E2358DF80E30132315
:10A9A0008DF806301723CDE90A44B5F8E005ADF877
:10A9B0002C3008AA214B8DF804400DA90C94CDE948
:10A9C00008768DF80580FEF781FA044648B9FEF74F
:10A9D0008FFA044628B9D5F8FC3543F00103C5F8D1
:10A9E000FC35204614B0BDE8F081D5F80426511C92
:10A9F000C5F804161370A7E6114802F0E1FD1049EE
:10AA00005BE70024EDE700BF405A002000800F0004
:10AA10007859002068F30F0000F00F00F463002065
:10AA2000F8630020C8D90F0078590020206000206A
:10AA300024DA0F0022600020246000202C60002017
:10AA40002CD80F002DE9F04115464FF460720646F0
:10AA500088461F4602F078FC28B915B90020BDE8E9
:10AA6000F081A847FAE701213046FEF761FB70B993
:10AA70004FF460724146384602F098FC2B464FF482
:10AA8000607239463046FEF792FA0028E6D003207D
:10AA9000E5E70246014B0248D4E700BF10640020FE
:10AAA00000E00F00034B04490448002283F8112200
:10AAB000EFE700BF405A002000F00F00F9870F00B9
:10AAC000042870B5164E044609D8022812D823D09F
:10AAD000D6F8503D1BB32046BDE870401847831F91
:10AAE000012BF5D800230F490F4886F81132FFF7E4
:10AAF000D0FFEDE70D4D2A7B4FF4803393400C4A95
:10AB0000C2F80833FDF7EFFE0A4B2B604FF47011CB
:10AB10002846FDF721FFDBE7FFF732FCD8E770BDE1
:10AB2000405A002000F00F00F9870F0078590020EC
:10AB300000400240A5AA0F0070B5114C0022582118
:10AB4000064604F51170FDF7F5FB0022C4F840023B
:10AB5000C32104F59460FDF7EDFB04F65453C4F8EB
:10AB60009C040022074804F51071FFF76BFF0546AF
:10AB700020B904F510713046FFF78BFF284670BDF1
:10AB8000405A002000F00F002DE9F74FDFF884A0B5
:10AB90009AF819320D1A02F6FF77064688461446CF
:10ABA0002D0B3F0B0BB9FDF726FF082D28BF0825FD
:10ABB0002B0301930CB9234627E0BD422CBFBB46B3
:10ABC000AB465946304634BFDDF80490A146FEF747
:10ABD000AFFA0346C8B909F1030222F00302414665
:10ABE0003046FEF7E4F9034678B9DAF870324B44A0
:10ABF000CAF87032FFF7A0FFA7EB0B07A4EB09041C
:10AC00004E44C84403460028D4D0184603B0BDE8DB
:10AC1000F08F00BF405A002008B5134BD3F88812BC
:10AC200001F500525068114A904219D1D3E99C02B3
:10AC3000904217D0B1F5805F03D1BDE808400020F5
:10AC40007AE7121A02F6FF7222F47F62014422F0C0
:10AC50000F0200F58050FFF797FF0028EDD008BDE8
:10AC60000320FCE70020FAE7405A0020DBE5B15161
:10AC7000F0B5ABB004460D4616461F467C22202395
:10AC800000210BA8029302F02BFC134B93F85836CB
:10AC90000BB9FEF742FE57B1631E0DF12B021F34B4
:10ACA00013F8011F02F80119A342F9D103AC02AB5A
:10ACB00000933246094B29460BA8FEF747FA48B9DC
:10ACC00006482022214602F03FFBB0FA80F04009FE
:10ACD0002BB0F0BD0020FBE7405A0020146B002091
:10ACE00030B5164BD3F86C22D3F86452D3F88842AF
:10ACF000AC2A85B01CD1D3F874321C44ED1A10482C
:10AD00002A46214602F020FB80B10E4BD3F80034D6
:10AD10000BB1FDF755FE10220021684602F0E0FB62
:10AD2000AD08684601940295FEF750F905B030BDB4
:10AD3000002CE4D1FEF768F90446E0E7405A002011
:10AD400000800F00000001402DE9F043CDB003AFBB
:10AD5000374C81460D46164600217C22984604A8B1
:10AD600020233B6002F0BCFBA422002123A802F0B8
:10AD7000B7FB94F858360BB9FEF7CFFD002D4FD036
:10AD8000B9F1000F4ED12B4B549A0097414604A8BD
:10AD9000FEF7DCF9002847D1402E45D1324629463E
:10ADA000254802F003FB244B102203F11F01187801
:10ADB0000D7803F8015B013A01F80109F7D11F4B47
:10ADC000102503F11F021978107803F8010B013DDB
:10ADD00002F80119F7D1D4F81026194B9A421BD169
:10ADE000D4F814365B79202B16D1164B3E6823938A
:10ADF000FDF78CFB80B1FDF7CBFB0E4B12490096A3
:10AE0000A3F1400223A801F0DDF8FDF7CFFBBFF36B
:10AE10005F8FC4F80C5248B105204DB0BDE8F083F7
:10AE20001320FAE71620F8E70A20F6E70120F4E7F6
:10AE3000405A0020746B0020346B0020546B0020BB
:10AE40007052464DDD55AABB5860002013B504462C
:10AE5000084623781146032B03D8DFE803F02005CA
:10AE60000F17002002B010BD0022FDF763FAD4F8DE
:10AE70000130834214BF00200120F3E70A4600237B
:10AE80000146601C02B0BDE81040F1E600910346A7
:10AE90004022611C0020FFF757FF0128EAE701204C
:10AEA000E0E72DE9F043A3B005460E461446002125
:10AEB0007C221F4603A820239DF8AC800293DDF876
:10AEC000A89002F00DFB41220021284602F008FB69
:10AED000B6F89430A34282BF442303FB046393F883
:10AEE000968085F80080B8F1030F1CD8DFE808F0E1
:10AEF0000902111D002249463846FDF71BFAC5F824
:10AF000001004A4639462846FFF7A0FF23B0BDE8B6
:10AF1000F08302AB00934A466B1C394603A8FEF748
:10AF200015F90028EDD00020F0E744214C433319F7
:10AF30009A34B3F898203119681C02F037FAE0E728
:10AF40002DE9F04F884D894CABB080460026641B3C
:10AF50001423B4FBF3F4A64231D1854C182200210E
:10AF600002A802F0BDFAD4F8CC95D4F890A204233C
:10AF7000CA458DF8083040F0E9807E4BD4F8B079AE
:10AF8000DD6D52460123294607F17200FFF770FE7E
:10AF9000002800F0D98097F85560002E51D14FF06D
:10AFA000010BCDE900AB2B463246394619A8FFF715
:10AFB00078FFD0B905267048FFF77EFA2AE02B68A3
:10AFC00013B901361435C6E7DB69284698470028CF
:10AFD000F7D0674BB3F86836172B2FD9674940462F
:10AFE0002BB0BDE8F04FFEF7EBBC412219A904F2EB
:10AFF000E14002F0DBF9C4F86CB2C4F860627B682F
:10B00000C4F84832002249462846FDF793F9C4E9BE
:10B0100099900126FFF73AFA0A2E88BF0B3EC4F832
:10B02000885284BF84F8F8650B2602A8D8E901137A
:10B030008DF8096098475248FFF77EFD2BB0BDE8B8
:10B04000F08F4122002108A802F04AFA06F0010A16
:10B050004122002119A806F0020602F041FABAF1D5
:10B06000000F7BD005F50050464B41689942A1D1B5
:10B07000D7F858B00BF5FF530BF6FF72C2F30B0273
:10B080001F339B1A82689A4294D34FF440535A68F4
:10B090008A420ED11A78102A88BF1A6905F5005322
:10B0A00098BF0022197810298CBF1B6900239A428F
:10B0B00080D12846FDF7DCFF10B1002E3FF47AAFB7
:10B0C0000123CDE900B300222B46394608A8FFF73B
:10B0D000E8FE00283FF46EAF06BB2846FDF7C8FF28
:10B0E00010B12948FFF7E8F92848412208A902F0E1
:10B0F0005DF9002E14BFAC23A523C4F86C32BB6DE0
:10B10000C4F87432002E3FF47DAF2148412219A9C2
:10B1100002F04CF97B68C4F84C3273E7BA6DAB1897
:10B12000A9EB02020021CDE9002119A852463946B7
:10B13000FFF7B7FE00283FF43DAFBAF1000FCCD1C6
:10B14000AA23C4F86C32DDE7172634E701238DF813
:10B15000093002A8D8E9011398476FE7002EEFD015
:10B160004A462B46DEE700BF105A0020245A002032
:10B17000405A0020386B0020A45C002041AF0F0033
:10B18000D18F0F00DBE5B151985C0020E05E00201C
:10B19000625F00202DE9F3415F4DD5E99E329A426E
:10B1A00040F0B5805D4F97F860304BB1FDF72CFF54
:10B1B000F865D5F8B00902B0BDE8F041FDF78CBFE5
:10B1C000FFF786F9002800F0A48095F8F027002A00
:10B1D00039D095F85C09B5F85E2905F5166105F2D8
:10B1E000F476D5F8C4350093D5F8C035FFF7ACFD3B
:10B1F000012804463FD196F85830002B7FD096F8AE
:10B200005920032A7BD896F87230032B75D1337BF3
:10B21000002B74D03369342B73D14FF4405C404819
:10B22000DCF80410B38A814256D153B1B1690029C8
:10B2300048D0DBB206F1180000215FFA81FE7345A9
:10B2400006D8122417E01146104605F5D166C8E766
:10B2500050F8048BBCF80CE0F04501F10101ECD191
:10B260003379002B44D0012AB3683BD8D5F8482263
:10B270009A4288BF10240023012CFB65C5F8CC3509
:10B2800042D1D5F8B009FDF727FF012804463BD18C
:10B29000FDF7BAFED5F8CC65224D281A864207D9AB
:10B2A000FDF79EFE281AB0422DD31F48FFF704F980
:10B2B000FDF7AAFE0123F86587F86030204602B04A
:10B2C000BDE8F08112B9012BBBD1C9E7531E18BFED
:10B2D0000123002BC4D1B4E713B1B369002BB0D163
:10B2E0003379F6E7D5F84C229A4228BF1024C2E7FA
:10B2F000012A14BF0F240124BDE71424BBE70F2447
:10B30000B9E71124B7E70424FFF7C0F8D6E708240B
:10B31000D4E70524D2E700BF405A0020386B002054
:10B32000DBE5B15100500F00985C00202DE9F0439F
:10B33000044687B018220021684602F0D1F825782B
:10B340008DF8005001238DF801306B1E0B2B00F29D
:10B350006881DFE813F01F0011001F001F00660165
:10B360001F0066011F006601660166010C00AE4BFE
:10B370000720D3F83C329847D4E901136846984730
:10B380009DF80130012B00F03E81A74B0520D3F83A
:10B390003C3237E1062DA54A01D0012D02D12169A9
:10B3A00082F8241092F82460012E06D0022E00F0BC
:10B3B0008580002382F82430CDE0072BDCD801A261
:10B3C00052F823F0E5B30F0079B30F00ADB40F00CE
:10B3D00075B40F0079B30F00A7B40F0079B30F0055
:10B3E00017B40F00904F0320D7F83C329847666996
:10B3F0006EB1B6F5007F0CD88D4B002283F860202B
:10B40000FFF744F8C7F878628DF80150B4E70325D8
:10B41000FAE70425F8E7844DA78AD5F87C02D5F829
:10B4200078323A189A4223D8D4F8108028443A4601
:10B43000414600F5277001F0B9FFD5F87C3205F5DB
:10B4400020723B4439464046C5F87C32FCF772FF17
:10B45000C5F88002D5F87C320193D5F8803202938A
:10B46000E3688DF80160002B86D02069984783E758
:10B470000326EFE7FFF78EFE0A2807D96A4B0B3841
:10B4800083F8F8050B238DF8013075E701288DF856
:10B4900001007FF471AF0020FFF74EFB00283FF45E
:10B4A0006BAF0A23EFE74FF4007303935E4BD3F8BF
:10B4B0007C22D3F88032019202935DE7072B3FF69E
:10B4C0005BAF01A252F823F0E9B40F0079B30F008B
:10B4D000C9B50F00D7B50F0079B30F000DB60F0037
:10B4E00079B30F005BB50F00514D95F860300BB983
:10B4F0000823C8E762690AB90323C4E7C2F30B0350
:10B500003BB14949D1F89432D1F8CC1513448B4260
:10B51000F2D1B2F5805F01D90423B4E7424BD3F8EE
:10B520009402D3F8CC1516188E42E1D8C3F88422C1
:10B53000D3F88C22C3F89002C3F87002C3F88822B3
:10B540006169EB6D01F6FF71090B1844FDF7F0FD21
:10B5500000283FF411AF052395E7354A92F8603093
:10B56000002BC5D0304DB4F81480D5E9A4315B1A56
:10B57000D5F8841243448B42BED8D4F81090D36DD2
:10B58000D5F8707205F52272414648461F44FCF713
:10B59000D1FEE3680646424649463846FDF707FDB8
:10B5A00008B1E36861E7A28AD5F8703202961344C5
:10B5B000C5F87032A38AD5F89022C5F88862134482
:10B5C000C5F890320193D7E6174BD3F88822029240
:10B5D000D3F89032F6E7144DD5E9A423D5F88412B8
:10B5E000D31A8B4284D1D5F88832C5F88C32002129
:10B5F0002046C5F88412C5F89422FFF7A1FCD5F8BF
:10B600003C320420984707B0BDE8F083064BD3F8DE
:10B610008822D3F8903201934FF48053029203931F
:10B62000AAE602232FE700BF405A002078590020E5
:10B63000386B002010B5FCF745FF40B14FF0804358
:10B640000022C3F80C21C3F81021C3F83825FCF7F9
:10B6500039FF002846D04FF08052614BD2F80414D5
:10B66000C3F82015D2F80814C3F82415D2F80C1426
:10B67000C3F82815D2F81014C3F82C15D2F81414F6
:10B68000C3F83015D2F81814C3F83415D2F81C14C6
:10B69000C3F84015D2F82014C3F84415D2F8241486
:10B6A000C3F84815D2F82814C3F84C15D2F82C1456
:10B6B000C3F85015D2F83014C3F85415D2F8341426
:10B6C000C3F86015D2F83814C3F86415D2F83C14E6
:10B6D000C3F86815D2F84014C3F86C15D2F84424A6
:10B6E000C3F87025FCF7F7FE18B13E4B3E4AC3F88D
:10B6F0008C26FCF7F0FE18B13C4BFB22C3F8182552
:10B70000FCF7E9FE70B14FF080414FF08053D1F863
:10B71000E42ED3F8583222F00F0203F00F03134344
:10B72000C1F8E43EFCF7D7FE20B1314B4FF4007274
:10B73000C3F84026FCF7C6FE48B14FF08043D3F86B
:10B740000024D20744BF6FF00102C3F80024294A45
:10B75000D2F8883043F47003C2F88830BFF34F8FBB
:10B76000BFF36F8F4FF08053D3F83021082A10D1E8
:10B77000D3F83421052A04D81F4B134493F8F4312D
:10B780003BB14FF01023D3F808224FF08043C3F8A9
:10B7900058254FF01023D3F80022002A03DBD3F8FA
:10B7A0000432002B17DA154901234FF01020C1F89D
:10B7B00004351224FCF7A2FEC0F80042FCF79EFEFE
:10B7C000C0F80442FCF79AFE0023C1F80435FCF7E8
:10B7D00095FEFCF765FE0A4B0A4A9A6210BD00BF4F
:10B7E00000C00040005000404881030000F00040CD
:10B7F0000090024000ED00E040D80F0000E0014062
:10B80000785900200090D00307B50A4B0A4A0093EC
:10B810000A4B934208BF00230193019B13B903B065
:10B820005DF804FBD3E9002090476846FCF72CFE46
:10B83000F3E700BF3CDA0F00B8DC0F00A8DC0F0014
:10B8400070B5144B144A0C21D21AB2FBF1F2816983
:10B8500011F8025C044635B900690021914205D116
:10B86000012323600EE04FF0FF30F6E71E68AE4282
:10B870000CD1461C07D19D68D4E90001D4E902230C
:10B88000A847206070BD5E688642F4D001310C3359
:10B89000E4E700BF70DC0F007CDC0F001EF0040F3B
:10B8A0000CBFEFF30880EFF30980FFF7C9BF00BFBB
:10B8B0002DE9F3411C4BD3F8042162B11B49D1F8A7
:10B8C00084240132C1F884240022C3F80421D3F86F
:10B8D00004310093009B164C164DDFF84C80164E39
:10B8E00000272B6873B12F602B68227B0193019B8B
:10B8F0004FF480339340C8F80833616851B1204653
:10B90000FDF72AF80435B54204F11004E9D102B07C
:10B91000BDE8F081A16811B12046FDF71DF823684C
:10B92000002BEFD09847EDE700400240386B002035
:10B93000785900204041024048410240054B002216
:10B9400082B0C3F80021D3F800310193019B02B00B
:10B95000704700BF0000014080B50021DFF8D882A9
:10B96000D1F8F83F013311D1B1480123C0F80435B3
:10B97000BFF36F8FBFF34F8FC1F8F88FFCF7BEFD99
:10B98000C0F80415BFF36F8FBFF34F8F0021D1F8BC
:10B99000FC3F013313D1A6480123C0F80435BFF39F
:10B9A0006F8FBFF34F8F4FF47E23C1F8FC3FFCF73E
:10B9B000A5FDC0F80415BFF36F8FBFF34F8F9D4CEB
:10B9C000D4F81422072A01D9FCF76AFD130103F108
:10B9D000804101F5F0310020C1F800080B464FF41A
:10B9E0008050C1F804080221C3F808180132C8F5D4
:10B9F0007E219148C4F81422FCF701FF014600287B
:10BA0000E2D18E4BC4F8503D8D4F8E4A4FF0A0438B
:10BA10003846C3F864278C4B3B60FCF7A7FC05460F
:10BA20000028D1D1FEF7ACFC2846FFF785F8064682
:10BA30000028C9D1D4F86C32AA2B00F0C68000F2DD
:10BA40008780012B00F08D80A52B00F0BA804FF08D
:10BA50008043D3F8005415F4803500F0B9804FF4DA
:10BA60008032C3F800240025D4F86032012B00F0A6
:10BA7000BD804FF4701894F819320BB9FCF7BBFF76
:10BA8000724BC4F8603603F58473C4F8643600233F
:10BA900084F85A3684F859361823A4F868362023D7
:10BAA000A4F85C364FF08043694DD3F81C25DFF8CD
:10BAB000BC9102F0F902B12A02BFD3F81C2502F0B2
:10BAC0004E02C3F81C252A7B4FF480339340614A11
:10BAD000C2F80833FCF707FF5F4B2B60414628464E
:10BAE000FCF73AFFDFF8A0815C4B5D4DC4F8DC3514
:10BAF0000020FDF753FCA5EB0805ED08B54240F02A
:10BB00002581584B4E483B600021FCF77FFC002804
:10BB10007FF45AAFD4F87832534D002B40F01F8198
:10BB200085F86030514BC4F83C32514D002384F805
:10BB3000F835D5F800340BB1FCF742FF94F85926DC
:10BB400094F85A369A4240F01781FCF7CAFEF0E7A3
:10BB5000AC2B7FF47CAFFFF75FF8A0BBFFF7C0F81A
:10BB600031E0FDF73DFAD4F88882D4F8645280457C
:10BB700040F02881FDF734FA00222946FCF7DAFB71
:10BB8000D4F86832984202BF0123C4E99703C4F88D
:10BB9000585200253748FEF78FFC0023364884F8BA
:10BBA0001232FEF7C9FF00287FF40EAF002D00F01F
:10BBB000C580D4F86032012B40F0C0804FF4A0283B
:10BBC00059E7FFF729F80125E4E7FFF789F8E0E7EF
:10BBD000D3F8202502F0F902A92A03BFD3F82025C3
:10BBE00002F05602C3F8202501253DE74FF44053EB
:10BBF0005A68224B9A420CD0FDF7F2F9D4F8582239
:10BC00000146002D42D01E48FFF720F9002841D1FF
:10BC10002FE7D4F874221DB994F8A034012BEBD08F
:10BC200018484FF48051FFF711F90028E4D120E7BC
:10BC300000E00140405A002000800F00C1A60F0024
:10BC4000105A00200C00030048DA0F009C6B002003
:10BC50007859002000400240A5AA0F00C1AA0F0099
:10BC600070DC0F0068DA0F00386B00209D930F0026
:10BC700000000140A45C0020E9870F00DBE5B15122
:10BC8000215F0020E05E002068DC0F0094F8E134C2
:10BC9000012BB8D14FF0A043D3F810359B017FF5AD
:10BCA000E8AE4FF08043D3F81C3503F0F903B12B15
:10BCB0003FF4DFAED4F86435D4F8A4251340013343
:10BCC00077D100234549464884F81132FEF7E1FE5A
:10BCD000444B45484FF0FF32C3F88020C3F8802121
:10BCE0004FF000534FF480561E60C8F57F21FCF7DB
:10BCF00086FD054600287FF467AEFDF771F9D4F89C
:10BD0000583203F6FF7323F47F6323F00F031918EF
:10BD10002846FCF774FD00287FF456AEEFF3058348
:10BD2000D6E9002380F3148880F3108880F311880B
:10BD300080F3138882F30888984745E60023274953
:10BD40002A4884F81132FEF7A4FE3DE658F8363052
:10BD50004846984700287FF437AE0136CEE6FEF716
:10BD6000B7FB85F8600000283FF4DCAEFFF712FA5D
:10BD700001283FF4D7AE27E694F85936D4F8602668
:10BD8000B4F86866D4F8640602EBC30103FB06004E
:10BD900052F833208988904794F85926B4F85C16F5
:10BDA000D3B2914286BF0133DBB2002384F8593607
:10BDB000C4E64FF47F20FCF7D7FC0D49C922FCF7FD
:10BDC000EBFC7EE7D4F87032EA1A08EB0301184462
:10BDD000FEF7DAFE00287FF4DCAECBE600F00F00C1
:10BDE000D9870F0000E100E000800F00F9870F0005
:10BDF000805C002030B10268034B04489A4208BFBF
:10BE00000020704702487047DD55AABB8208F00049
:10BE10007108F00038B50D460446B0B1A0220021EB
:10BE2000043000F049FD95B10822294604F1640070
:10BE300000F048FD082205F1200104F1840000F023
:10BE400041FD044B2360002038BD0348FCE7034854
:10BE5000FAE700BFDD55AABB7108F0008308F000C7
:10BE60002DE9F74305460E461F461146FFF7C2FF70
:10BE70000446002840F08280002E00F083800029D4
:10BE800000F08280202F40F0818005F144040822D8
:10BE900005F10409204600F015FD05F124080822EB
:10BEA0003146484600F00EFD06F1200108224046CA
:10BEB00000F008FD01A94FF48070019700F0A0FA8E
:10BEC000002865D1334A4FF48073136001219360D9
:10BED000314A082300F04AFB012108462F4A052376
:10BEE00000F044FB08234A4601211C2000F03EFBE1
:10BEF000082342460121032000F038FB2246082394
:10BF00000121022000F032FB254A082301211A20DA
:10BF100000F02CFB234A052301211B2000F026FB07
:10BF2000214A08230121142000F020FB1F4A082386
:10BF30000121152000F01AFB082305F164020121FC
:10BF4000162000F013FB082305F1840201211720BD
:10BF500000F00CFB0823164A01210B2000F006FB21
:10BF600000F062FB0446019800F0EEFA114B002C41
:10BF700018BF1C46A421284600F0A0FC204603B0B0
:10BF8000BDE8F0830C4CF9E70C4CF7E70C4CF5E7F7
:10BF9000084CEFE790B002509CDB0F0014DC0F0060
:10BFA0005CDB0F0000DC0F00C0DB0F00E0DB0F00EC
:10BFB0007CDB0F008408F0007608F0008008F000B9
:10BFC0008108F00037B50193069B0093044615469F
:10BFD000FFF720FF40B9DDE900322946204603B0D3
:10BFE000BDE83040FFF73CBF03B030BD0C4BC26929
:10BFF0001A60826943F8042C426943F8082C0269EC
:10C0000043F80C2CC26843F8102C826843F8142CB7
:10C01000426843F8182C026843F81C2C704700BF94
:10C020005CB602500C4B1B68C3610C4B1B688361F0
:10C030000B4B1B6843610B4B1B6803610A4B1B686E
:10C04000C3600A4B1B688360094B1B684360094B44
:10C050001B680360704700BF5CB6025058B60250C0
:10C0600054B6025050B602504CB6025048B6025078
:10C0700044B6025040B6025030B10268034B044847
:10C080009A4208BF0020704702487047DD55AABB9E
:10C090000202F0000002F00013B5044670B1043053
:10C0A0007021019000F00AFC01980549202200F05F
:10C0B00001FC044B2360002002B010BD0248FBE7E6
:10C0C00038DC0F00DD55AABB0002F0002DE9FF4768
:10C0D000254B04460F4615460FCBE84688E80F006F
:10C0E00025B90026304604B0BDE8F0872046FFF7AA
:10C0F000C3FF06460028F5D1666A231D01938EBB57
:10C10000206FC0B1C0F14009A94528BFA94604F17C
:10C11000300A4A463946504400F0CCFB226F4A446C
:10C12000402A4F442267A5EB090504D151464046F9
:10C1300000F0D6FB266705F03F0935F03F0505D036
:10C1400039462A46404600F0CBFB2F44B9F1000F98
:10C15000C7D04A46394604F1300000F0ABFBC4F8C2
:10C160007090BFE7014EBDE728DC0F000C02F00025
:10C170002DE9FF41144B04460D460FCBE84688E8F5
:10C180000F002046FFF778FF0746B0B9CDB1636ACC
:10C19000261D01963BB90123226F636204F1300131
:10C1A000404600F09DFB3346043D243453F8042BF5
:10C1B00012BAA34245F8042FF8D1384604B0BDE8BE
:10C1C000F081024FF9E700BF28DC0F000502F00004
:10C1D000084B1B681B0EF02B08D1074B1A68074B46
:10C1E0009A4205D1064B0020186070470520704721
:10C1F0000620704728B9025024BA02500000E020FF
:10C200000CBA0250002230B549001346023840F6FD
:10C21000FC75940004F1A04404F52C34904202F122
:10C220000102CABF236025605B181E2AF1D1044AAF
:10C2300013600B445360034B034A1A6030BD00BFC8
:10C2400078B0025084B0025020F80F0030B51F4B78
:10C2500085B01A46196800910099CC07FAD500F10B
:10C26000A05000F52C408000016813680193019BE9
:10C27000D807FAD5164B174C1B68174D13F11F0042
:10C2800048BF03F13E0040110138002810DA0023B6
:10C290000130400153B1A0F120014FF000421342A0
:10C2A00004D1013888424FEA5202F8D105B030BDBE
:10C2B00013680393039BDB07FAD5431823602B68AD
:10C2C0000293029B002BE3D10138DEE7B4B00250A9
:10C2D000ACB00250E4B00250DCB00250F0B51D68C2
:10C2E00085B001F01F040DB91F2C25D1154D2E4628
:10C2F0002F680197019FFF07FAD500F1A05000F5C4
:10C300002C408000006835680395039DED07FAD541
:10C310000D4D00EB611028600C48006802901F2C46
:10C3200018BFC94302980FBF106001F01F0100FA47
:10C3300001F111600021196010684300C00F136003
:10C3400005B0F0BDB4B00250E4B00250DCB0025011
:10C350000C4B18603F3020F03F008901403058609E
:10C360009960D9601961596199610748D9611C3395
:10C3700082B002680192019AD207FAD5196002B020
:10C38000704700BF90B00250B4B0025038B5A0F171
:10C390002003B3F5426F05462CD88F2826D800F12C
:10C3A000470300F16604DB064FEA541400D0013461
:10C3B00064013F34A409013411B18C421AD80C46EF
:10C3C000E3004FF48050B0FBF3F0202828BF20207A
:10C3D00002B11060084B01221A602146FFF712FFDC
:10C3E00028462146FFF7B4FF002038BD00F11F04A6
:10C3F0006409DDE70148F8E71CB802502221F0008B
:10C400000A460021FFF7C2BF2DE9F041484B88B032
:10C410001C461D680195019DEF07FAD5454BDFF8D5
:10C4200020E1454F13449B000A181B681E2A88BF51
:10C43000C0F11E011F330A185B095A43B2F5806F21
:10C4400088BF4FF480614FF0000203F1010588BFFF
:10C45000B1FBF3F1944688BF091A25F0010580006D
:10C46000914233DC22680492049AD207FAD5334A07
:10C470001268216805910599CF07FAD530482E49F1
:10C480000260002215469A4246D15A1C2A4D19468E
:10C4900022F0010200268A4241D8216806910699BD
:10C4A000CE07FAD52749096825680795079DED0746
:10C4B000FAD50160002120480C46994232D11E492C
:10C4C00000209A4231D808B0BDE8F0812668029673
:10C4D000029EF607FAD500F1A04606F52C3636681E
:10C4E000D4F80080CDF80C80DDF80C8018F0010F36
:10C4F000F6D0CEF8006000269E4205D11E46B54219
:10C5000006D801320430ABE7C7F800C00136F3E7C4
:10C51000C7F800C00136F2E70D600132B3E72E60C4
:10C520000131B8E704600131C7E708600133C8E7AB
:10C53000B4B0025024AC0014D8B002507CB0025009
:10C54000D4B0025078B0025008B540B1202801465E
:10C550004FF0070228BF20210020FFF755FF024BB4
:10C5600000221A6008BD00BF1CB80250F0B52A4D69
:10C5700085B02C462E680096009EF707FAD500F18C
:10C58000A05000F52C4080000568206801900198BB
:10C59000C607FAD5214E2248356002EB8307BA421E
:10C5A0002BD15A1C1E4822F0010200279A4229D89A
:10C5B00023680293029BD807FAD51A4B0B449B00C1
:10C5C00018681F30B2EB501F4FEA501313D2216886
:10C5D00003910399C907FAD5154400219B1A104A03
:10C5E000356008468B4210D85A1C0D4922F00102D2
:10C5F00000209A420CD805B0F0BD52F804CBC0F828
:10C6000000C0CCE707600133D0E710600131E9E7F3
:10C6100008600133EDE700BFB4B00250D4B002505F
:10C62000D8B0025024AC00142DE9F041834B1D68B2
:10C6300098682033A0B01E461A680192019AD2076A
:10C64000FAD57F4C7F4B236033680293029BDF0750
:10C65000FAD57D4B23607D4B1F461A680392039ADF
:10C66000D107FAD57A4B1968C1F340213268049298
:10C67000049AD207FAD5774A22603A680592059A59
:10C68000D207FAD51A68C2F34022002900F0D180FF
:10C69000002A00F0CE8032680692069AD107FAD5B9
:10C6A0006D4A22603A680792079AD207FAD51A684B
:10C6B000C2F34022316808910899C907FAD5674941
:10C6C0002160396809910999C907FAD51B68C3F334
:10C6D0004023002A00F0AF80002B00F0AC803368CC
:10C6E0000A930A9BDA07FAD5564B236033680B93FB
:10C6F0000B9BDB07FAD55A4A226033680C930C9BDC
:10C70000DF07FAD5574B236033680D930D9BD9078C
:10C71000FAD5554B236033680E930E9BDB07FAD591
:10C72000524B236033680F930F9BDF07FAD5504BB2
:10C730002360504B1E46196810911099C907FAD50D
:10C740003F4C4D4B236033681193119BDB07FAD5A7
:10C750004A4B236033681293129BDF07FAD5484B8C
:10C7600023603A4B9846196813911399C907FAD573
:10C77000324F386033681493149BDB07FAD522607C
:10C7800033681593159BD807FAD53E4B2360336861
:10C790001693169BD907FAD53B4B23603368179342
:10C7A000179BDA07FAD5394B236033681893189B27
:10C7B000DB07FAD5364B236033681993199BD807EA
:10C7C000FAD5344B236033681A931A9BD907FAD5EC
:10C7D000314B236033681B931B9BDA07FAD52F4B31
:10C7E000236000F033FC08BBD8F800301C931C9B7E
:10C7F000DB07F9D53D6033681D931D9BD907FAD53A
:10C80000274B236033681E931E9BDA07FAD5254B0E
:10C810002360D8F800301F931F9BDB07F9D50C4B22
:10C820001B6813F4805F204B08BF184620B0BDE89A
:10C83000F0811E48FAE71E48F8E700BF90B00250AA
:10C8400080B0025000100251C01F7229B4B00250D3
:10C8500088B00250C0CF0129C01F0E29C03F002957
:10C8600040010249003184A800001649400108A196
:10C8700080440888B0B00250C044708880077A4174
:10C88000C0077E4100006A498006164940006E4993
:10C890000002002100822021408220218082242168
:10C8A00040A161A100C861510308F1000108F10035
:10C8B0000208F10000F07ABD00F012BE0A46002125
:10C8C00000F00EBE01EB820204388A4201D1002042
:10C8D000704752F8043D1BBA40F8043FF5E70000EA
:10C8E0002DE9F74F314B4468054691469A461A6840
:10C8F000002AFCD12E4B9B461A68002AFCD14FF02F
:10C90000FF30019100F094FC802000F097FC294E4C
:10C91000294ADFF8B880294F012307203360A2F5A8
:10C920009E72C2F83C011360636AC8F80030A36AC3
:10C930003B602B6842F8043CAB682046984701995D
:10C94000DAF80030002BFBD1B9F1000F20D11C4BDD
:10C9500004221A60DAF80030002BFBD1DBF80090DB
:10C96000B9F1000FFAD1EB6820469847D8F80030AB
:10C9700063623B68A362134BC3F80090C3F8449111
:10C98000DAF80030002BFBD1336003B0BDE8F08F44
:10C99000236A012B04BF0B4A13600B4B4020196024
:10C9A000C3F8049000F050FCD4E700BF10B9025067
:10C9B00020BC025018B8025000B90250D0B7025043
:10C9C000C8B7025084B6025028BC0250CCB70250FF
:10C9D00010B5544B98B019461A680192019AD207C3
:10C9E000FAD5514B514A1A600A680292029AD4074A
:10C9F000FAD54F4A1A600A680392039AD007FAD50B
:10CA00004C4818600A680492049AD207FAD54A4A38
:10CA10001A600A680592059AD407FAD5474A1A603F
:10CA20000A680692069AD207FAD5454A1A600A6839
:10CA30000792079AD407FAD5424A1A600A68089200
:10CA4000089AD207FAD5404A1A600A680992099AE8
:10CA5000D407FAD53D4A1A600A680A920A9AD207A0
:10CA6000FAD53B4A1A600A680B920B9AD407FAD59A
:10CA7000384A1A600A680C920C9AD207FAD5364ADC
:10CA80001A600A680D920D9AD407FAD5334A1A60D3
:10CA90000A680E920E9AD207FAD5314A1A600A68CD
:10CAA0000F920F9AD407FAD52E4A1A600A6810928C
:10CAB000109AD207FAD52C4A1A601A4B19461C68EC
:10CAC0001194119CE407FAD5174B1860086812906E
:10CAD0001298C407FAD51A600A681392139AD007FD
:10CAE000FAD5124A1A600A681492149AD207FAD533
:10CAF0001E4A1A600A681592159AD407FAD51C4A7C
:10CB00001A600A681692169AD007FAD5194A1A605E
:10CB10000A681792179AD207FAD5174A1A6018B0FE
:10CB200010BD00BFB0B0025080B00250009365212C
:10CB300000043190409665900083612100C330214C
:10CB400000C3649000816190004610210081112192
:10CB50000041442100C320290C4610C80086312121
:10CB600000C3602140C128294096652100133190FF
:10CB700040962529594614C84004324910B5494BFE
:10CB800094B019461A680092009AD207FAD5464B1B
:10CB9000464A1A600A680192019AD407FAD5444AB3
:10CBA0001A600A680292029AD007FAD541481860C2
:10CBB0000A680392039AD207FAD53F4A1A600A68B4
:10CBC0000492049AD407FAD53C4A1A600A6805927E
:10CBD000059AD207FAD53A4A1A600A680692069A66
:10CBE000D407FAD5374A1A600A680792079AD2071B
:10CBF000FAD5354A1A600A680892089AD407FAD515
:10CC0000324A1A600A680992099AD207FAD5304A5C
:10CC10001A600A680A920A9AD407FAD52D4A1A604D
:10CC20000A680B920B9AD207FAD52B4A1A600A6847
:10CC30000C920C9AD407FAD5284A1A600A680D9209
:10CC40000D9AD207FAD5264A1A600A680E920E9AF1
:10CC5000D407FAD5234A1A600A680F920F9AD207AE
:10CC6000FAD5214A1A600F4B19461C681094109C83
:10CC7000E407FAD50C4B1860086811901198C407A6
:10CC8000FAD51A600A681292129AD007FAD5174A92
:10CC90001A600A681392139AD207FAD5144A1A60D6
:10CCA00014B010BDB0B0025080B002508090652129
:10CCB00000040990409665908080612180200821C1
:10CCC0008020649000816190004610210081112134
:10CCD0000041442180202029024610C800860921F5
:10CCE00080206021402128294096652140962529F1
:10CCF000594614C810B5504B96B01C461A6801929C
:10CD0000019AD207FAD54D4B4D4A1A602268029219
:10CD1000029AD207FAD54B4A1A604B4A42EA80403F
:10CD200022680392039AD207FAD518602268049207
:10CD3000049AD007FAD5454A1A60A2F5800242EA61
:10CD4000814122680592059AD207FAD519602268B6
:10CD50000692069AD007FAD53D4A1A6022680792D1
:10CD6000079AD107FAD53B4A1A6022680892089AB6
:10CD7000D207FAD5384A1A6022680992099AD00770
:10CD8000FAD5364A1A6022680A920A9AD107FAD569
:10CD9000334A1A6022680B920B9AD207FAD5314AAD
:10CDA0001A6022680C920C9AD007FAD52E4A1A60A3
:10CDB00022680D920D9AD107FAD52C4A1A60226882
:10CDC0000E920E9AD207FAD5294A1A6022680F925B
:10CDD0000F9AD007FAD5274A1A6021681091109946
:10CDE000C907FAD51A60144B1A461968119111999E
:10CDF000C807FAD5114B2049196011681291129990
:10CE0000C907FAD51D491960116813911399CC0708
:10CE1000FAD50B491960116814911499C807FAD50D
:10CE200017491960116815911599C907FAD5154A5E
:10CE30001A6016B010BD00BFB0B0025080B00250F2
:10CE40004004419000862929D81001C8401441901F
:10CE500040142129401465210034409000310C9089
:10CE6000C0400C90C030202940960D900041609049
:10CE7000031645C80086112100416021594644C867
:10CE80004014459040142D9070B5264888B0054652
:10CE900004680094009CE607FAD52348234C0460FC
:10CEA000234C44EA83432C680194019CE407FAD59F
:10CEB0000360930143EA824242F0104444F4C044C8
:10CEC0002B680293029BDE07FAD504602B6803935C
:10CED000039BDB07FAD5174B03608B0143EA8141C3
:10CEE00041F0104343F4C0432E680496049EF607B5
:10CEF000FAD503602B680593059BDE07FAD504601D
:10CF000041F058412B680693069BDC07FAD5016077
:10CF100042F058422B680793079BDB07FAD5026063
:10CF200008B070BDB0B0025080B00250C0210229DC
:10CF30008071009880611890354B8EB019461A6840
:10CF40000092009AD207FAD5324B334A1A600A6827
:10CF50000192019AD007FAD5304A1A600A68029203
:10CF6000029AD207FAD52E4A1A600A680392039AE7
:10CF7000D007FAD52B4A1A600A680492049AD2079D
:10CF8000FAD5294A1A600A680592059AD007FAD597
:10CF9000264A1A600A680692069AD207FAD5244AE7
:10CFA0001A600A680792079AD007FAD5214A1A60D0
:10CFB0000A680892089AD207FAD51F4A1A600A68C6
:10CFC0000992099AD007FAD51C4A1A600A680A928F
:10CFD0000A9AD207FAD51A4A1A6008680B900B9879
:10CFE000C007FAD51A600A680C920C9AD007FAD5D5
:10CFF000144A1A600A680D920D9AD207FAD5124A9D
:10D000001A600E210D230F2200200EB0FFF73CBF47
:10D01000B0B0025080B002508043012940633921F2
:10D02000807001298020542100D13490C040349078
:10D03000C0302029C0530D9000413890832308C888
:10D0400080E3102100413821CF4308C82DE9F04189
:10D05000012392B0CDE90333624B1E461A68059254
:10D06000059AD107FAD5604C604B2360604B194696
:10D070001A680692069AD207FAD55E4B1A68D70448
:10D0800000F1A88032680792079AD507FAD55A4A64
:10D0900022600A680892089AD007FAD51B68DA0459
:10D0A000C3F3003700F198801220FFF7CFF8054650
:10D0B0001320FFF7CBF885428CBF12201320FFF717
:10D0C000C5F8451EFFF738FF03AB01AA2946122019
:10D0D000FFF704F904AB804602AA29461320FFF7A4
:10D0E000FDF800EB4800022832D003283ED001288A
:10D0F00074D133680993099BDB07FAD53F4B236052
:10D1000033680A930A9BD807FAD53D4B23603368EE
:10D110000F930F9BD907FAD53A4B236033681093CE
:10D12000109BDA07FAD5384B236033681193119BB3
:10D13000DB07FAD5354B2360013D25D51023192295
:10D1400018210020FFF7A0FE384612B0BDE8F0819C
:10D1500033680B930B9BD907FAD52D4B23603368AB
:10D160000C930C9BDA07FAD52A4BCFE733680D9363
:10D170000D9BDB07FAD5284B236033680E930E9B7B
:10D18000D807FAD5254BC1E703AB01AA29461220DF
:10D19000FFF7A4F804AB044602AA29461320FFF7C0
:10D1A0009DF810EB440402D1FFF712FCC4E7FFF72F
:10D1B000E5FC022C08D0032C09D0012C10D117213A
:10D1C0001620FFF797FDB7E715211420F9E70F2187
:10D1D0000E20F6E7124FB7E7124FB5E7124FB3E74D
:10D1E000124FB1E7B0B0025080B0025000084A516F
:10D1F000B4B0025088B0025000084E5100065A499F
:10D2000040065E49000442410014424940042E4950
:10D21000000652494006564900063A4940063E4932
:10D220000608F1000708F1000408F1000508F10004
:10D23000014B1860704700BF08BA0250014B1860DC
:10D24000704700BF04BA0250094BC2431A60043B46
:10D2500082B01B680193074B019A024204D0064A30
:10D260001060186802B0704720BF1A680192F3E797
:10D2700004BA0250F48F002008BA0250054B4FF058
:10D28000FF321A6053F8042C034B1A601A68034BE0
:10D290001A60704704BA0250F48F002008BA025096
:10D2A000002301461A46184600F0F8B908B5074BA6
:10D2B000044613B1002100F047FA054B1868836A51
:10D2C00003B19847204600F0A3FA00BF49D70F00EA
:10D2D00058DC0F0038B5084B084D5B1B9C1007D07D
:10D2E000043B1D44013C55F804399847002CF9D102
:10D2F000BDE8384000F094BA105A00200C5A0020C3
:10D3000070B50D4E0D4D761BB61006D0002455F8A5
:10D31000043B01349847A642F9D1094E094D761BCA
:10D3200000F078FAB61006D0002455F8043B01341A
:10D330009847A642F9D170BD085A0020085A00202B
:10D340000C5A0020085A0020032A70B515D940EA6B
:10D35000010C1CF0030F04460B4621D11946204650
:10D360000E680568B54204F1040403F1040317D103
:10D37000043A032A20461946F0D8541EA2B100F1FF
:10D38000FF3C013901E0C3180CD01CF801EF11F883
:10D39000012F9645A4EB0C03F5D0AEEB020070BD57
:10D3A000541EECE7184670BD104670BD844641EA35
:10D3B000000313F003036DD1403A41D351F8043B0D
:10D3C00040F8043B51F8043B40F8043B51F8043B5F
:10D3D00040F8043B51F8043B40F8043B51F8043B4F
:10D3E00040F8043B51F8043B40F8043B51F8043B3F
:10D3F00040F8043B51F8043B40F8043B51F8043B2F
:10D4000040F8043B51F8043B40F8043B51F8043B1E
:10D4100040F8043B51F8043B40F8043B51F8043B0E
:10D4200040F8043B51F8043B40F8043B51F8043BFE
:10D4300040F8043B51F8043B40F8043B403ABDD26D
:10D44000303211D351F8043B40F8043B51F8043B0F
:10D4500040F8043B51F8043B40F8043B51F8043BCE
:10D4600040F8043B103AEDD20C3205D351F8043B9E
:10D4700040F8043B043AF9D2043208D0D2071CBF6A
:10D4800011F8013B00F8013B01D30B880380604693
:10D49000704700BF082A13D38B078DD010F0030309
:10D4A0008AD0C3F10403D21ADB071CBF11F8013B79
:10D4B00000F8013B80D331F8023B20F8023B7BE7C8
:10D4C000043AD9D3013A11F8013B00F8013BF9D2F3
:10D4D0000B7803704B7843708B788370604670478D
:10D4E000830730B548D0541E002A3FD0CAB2034645
:10D4F00001E0013C3AD303F8012B9D07F9D1032C3D
:10D500002DD9CDB245EA05250F2C45EA054536D97A
:10D51000A4F1100222F00F0C03F1200EE6444FEAB2
:10D52000121C03F1100242E9045542E9025510327F
:10D530007245F8D10CF1010214F00C0F03EB02124A
:10D5400004F00F0C13D0ACF1040323F003030433F5
:10D55000134442F8045B9342FBD10CF003042CB15A
:10D56000CAB21C4403F8012B9C42FBD130BD644677
:10D570001346002CF4D1F9E703461446BFE71A46D8
:10D58000A446E0E7000000000000000000000000EA
:10D59000000000000000000000000000000000008B
:10D5A000000000000000000000000000000000007B
:10D5B000000000000000000000000000000000006B
:10D5C00090F800F06DE9024520F007016FF0000CC3
:10D5D00010F0070491F820F040F049804FF000046B
:10D5E0006FF00700D1E9002391F840F000F1080046
:10D5F00082FA4CF2A4FA8CF283FA4CF3A2FA8CF37E
:10D600004BBBD1E9022382FA4CF200F10800A4FAE4
:10D610008CF283FA4CF3A2FA8CF3E3B9D1E9042338
:10D6200082FA4CF200F10800A4FA8CF283FA4CF36F
:10D63000A2FA8CF37BB9D1E9062301F1200182FA29
:10D640004CF200F10800A4FA8CF283FA4CF3A2FA2F
:10D650008CF3002BC6D0002A04BF04301A4612BA3D
:10D66000B2FA82F2FDE8024500EBD2007047D1E940
:10D67000002304F00305C4F100004FEAC50514F0CF
:10D68000040F91F840F00CFA05F562EA05021CBFA0
:10D6900063EA050362464FF00004A9E7F0B5264CA3
:10D6A000256885B0064605B36C681F2C41DCA6B121
:10D6B000D5F8880048B3D0F8007140F824204FF026
:10D6C000010C0CFA04FC00EB84024CEA0707022E62
:10D6D000C0F80071C2F8803010D0A31C01346C6017
:10D6E00045F82310002005B0F0BD1448144D256006
:10D6F0000028D9D00068C5F88800D5E7D0F80431F3
:10D7000043EA0C03C0F80431E7E70E480191CDE984
:10D71000022370B14FF48470AFF3008048B100274A
:10D72000C0E94077DDE902236C680199C5F88800FB
:10D73000C3E74FF0FF30D6E78490002000000000E0
:10D74000F88F0020000000002DE9F84FDFF8BCA0A2
:10D75000DAF800702DED028BE7B108EE100A894669
:10D760007D68D7F888806C1E14D407EB85060436D4
:10D7700008EB8505B9F1000F10D0B8F1000F02D009
:10D78000EB6F4B450AD0013C631CA5F10405A6F1E3
:10D790000406EFD1BDEC028BBDE8F88F7B683268E0
:10D7A000013BA34216BF00237C603360002AEAD00D
:10D7B000D7F804B0B8F1000F1AD0D8F8000101234F
:10D7C00003FA04F1014213D0D8F80401014218D140
:10D7D00055F8041C18EE100A90477A685A450BD188
:10D7E000DAF80030BB42CED01F46002FB8D1D1E7C7
:10D7F00090477A685A45F3D0DAF80070002FAFD11D
:10D80000C8E755F8040C9047E7E700BF8490002074
:10D81000FEE700BFF8B500BFF8BC08BC9E467047E5
:10D82000F8B500BFF8BC08BC9E4670474466755406
:10D8300061726700000000000000000000000000AE
:10D8400000100000040000000100000000100000B3
:10D8500004000000010000000100000000000D0EA7
:10D860000F10000098DC0F00A0DC0F000800000083
:10D87000A0DC0F00A8DC0F000800000090DC0F0007
:10D8800098DC0F0008000000B8DC0F00C0DC0F00BF
:10D890000800000000000000000000000000000080
:10D8A0000338FDD870470000010011000400FCFFA0
:10D8B0000400000000000000020011000400FCFF52
:10D8C0000400000000000000030021000400FCFF31
:10D8D0000400100000000000040011000100FFFF20
:10D8E0000100000000000000050011000200FEFF22
:10D8F0000400000000000000060011000400FCFF0E
:10D900000400000000000000070011000400FCFFFC
:10D910000400000000000000080017000200FEFFE5
:10D92000240000002CDB0F00090010000100FFFFA5
:10D930000100000028DB0F000A0027000200FEFFA4
:10D9400044000300F8DA0F000000000000000000AF
:10D950000000000000000000B9A50F00C9A50F00DD
:10D960003DA60F00200000000000000000000000A5
:10D970000338FDD870470100000700005BEC470545
:10D98000CACE6D42BDDA2280062E1176A18BB9A7D0
:10D990001AB5B264DFD64CBD578F7B0D0837B63B46
:10D9A00096F753C0E41509529018416C3680E33362
:10D9B0003FD369A7D3C08239A60B559F480000000A
:10D9C00000204000000000000C000C000000580285
:10D9D000CB8C0F00218D0F007B8D0F00E18D0F0090
:10D9E000F98D0F00138E0F00538E0F0043A30F000D
:10D9F00000000000010017000400FCFF68010000A7
:10DA0000C8DA0F00020017000400FCFFAC010000A0
:10DA100088DA0F0000000000000000000000000095
:10DA20000000000050EADA308883B89F604F15F399
:10DA30000000C98E0000000001010000A8DC0F00FA
:10DA4000B8DC0F00080000006D830F0095920F00F6
:10DA5000FF980F009F920F0001930F0079830F0032
:10DA60007D830F0081830F000D840F00F59D0F0053
:10DA70000D990F00499E0F00AD9E0F0055840F00B9
:10DA800059840F005D840F000100070000000000B2
:10DA900068010000C8DA0F00020001000000000069
:10DAA000010000000000000003000500010000006C
:10DAB0004200000000000000000000000000000024
:10DAC0000000000000000000010011000100FFFF45
:10DAD0000100000000000000020017000200FEFF2D
