:1000000000000420F9020000210300002303000087
:100010002503000027030000290300000000000062
:100020000000000000000000000000002B030000A2
:100030002D030000000000002F030000310300002A
:1000400033030000330300003303000033030000D8
:1000500033030000330300003303000033030000C8
:1000600033030000330300003303000033030000B8
:1000700033030000330300003303000033030000A8
:100080003303000033030000330300003303000098
:100090003303000033030000330300003303000088
:1000A0003303000033030000330300003303000078
:1000B00033030000330300000000000000000000D4
:1000C0003303000033030000330300003303000058
:1000D0003303000033030000330300003303000048
:1000E000330300003303000033030000000000006E
:1000F0000000000033030000000000003303000094
:1001000000000000000000000000000000000000EF
:1001100000000000000000000000000000000000DF
:1001200000000000000000000000000000000000CF
:1001300000000000000000000000000000000000BF
:1001400000000000000000000000000000000000AF
:10015000000000000000000000000000000000009F
:10016000000000000000000000000000000000008F
:10017000000000000000000000000000000000007F
:10018000000000000000000000000000000000006F
:10019000000000000000000000000000000000005F
:1001A000000000000000000000000000000000004F
:1001B000000000000000000000000000000000003F
:1001C000000000000000000000000000000000002F
:1001D000000000000000000000000000000000001F
:1001E000000000000000000000000000000000000F
:1001F00000000000000000000000000000000000FF
:100200000348044B834202D0034B03B118477047A5
:100210007000002070000020000000000548064922
:100220000B1AD90F01EBA301491002D0034B03B104
:100230001847704770000020700000200000000088
:1002400010B5064C237843B9FFF7DAFF044B13B11E
:100250000448AFF300800123237010BD700000201C
:10026000000000005C09000008B5044B1BB1044904
:100270000448AFF30080BDE80840CFE7000000006D
:10028000740000205C090000A3F5803A704700BFAD
:10029000154B002B08BF114B9D46FFF7F5FF0021C2
:1002A0008B460F461148124A121A00F027FA0C4BDF
:1002B000002B00D098470B4B002B00D09847002014
:1002C000002104000D000B4800F0C4F900F0F2F921
:1002D0002000290000F078F800F0C2F900000800C2
:1002E000000000000000000000000420700000205A
:1002F0001C010020890600000649074A074B9B1A8B
:1003000003DD043BC858D050FBDC00F075F8FFF764
:10031000BFFF0000680900000000002070000020FE
:10032000FEE7FEE7FEE7FEE7FEE7FEE7FEE7FEE7A5
:10033000FEE7FEE70A4B185C1F288ABF09494FF009
:10034000A04100F01F00D1F804350122824022EACA
:1003500003001340C1F80805C1F80C35704700BF11
:100360003009000000030050C20710B40FD4830707
:100370000AD54FF0A0430C22C3F82C27C3F830272E
:10038000C3F86027C3F864275DF8044B70474FF04B
:10039000A04303224FF40051C3F834274FF48044A4
:1003A000C3F83827C3F83C27C3F84027C3F808151B
:1003B0004FF480324FF40041C3F80845C3F80815E4
:1003C000C3F80825D3E700BF70B50120094DFFF73A
:1003D000CBFF45F0010500263046FFF7ABFF4FF499
:1003E000FA744FF47A40A847013CFAD10136042E42
:1003F000F2D1F0E74009000010B44FF08053D3F879
:100400003021082A23D0844AD2F8883043F470037C
:10041000C2F88830BFF34F8FBFF36F8F4FF0805318
:10042000D3F83021082A00F0B3804FF01023D3F81E
:100430000022002AC0F2BF80D3F80432002BC0F2A1
:10044000BA80764B764A1A605DF8044B70474FF0DD
:1004500080410020C1F80C01724AC1F81001C1F8B6
:100460003805D3F80414C2F82015D3F80814C2F8DC
:100470002415D3F80C14C2F82815D3F81014C2F8B8
:100480002C15D3F81414C2F83015D3F81814C2F888
:100490003415D3F81C14C2F84015D3F82014C2F850
:1004A0004415D3F82414C2F84815D3F82814C2F818
:1004B0004C15D3F82C14C2F85015D3F83014C2F8E8
:1004C0005415D3F83414C2F86015D3F83814C2F8B0
:1004D0006415D3F83C14C2F86815D3F84014C2F878
:1004E0006C15D3F83411D3F84434C2F870350529AB
:1004F00042D84D4B5B5C1BB14C4B4D4AC3F88C262C
:100500004C4B5B5C73B14FF080534B49D3F83021B7
:10051000FB20C1F81805082AD3F834117FF473AF13
:10052000052929D8454B5B5CBBB14FF080524FF099
:100530008040D2F85832D0F8E41ED2F8304121F091
:100540000F0103F00F030B43C0F8E43E082CD2F870
:1005500034117FF458AF05290ED8394B5B5C5BB181
:100560004FF08053374AD3F830314FF40071082BE5
:10057000C2F840167FF447AF4FF08043D3F8002411
:10058000D2077FF540AF6FF00102C3F800243AE7CD
:10059000D3F83431052B08D94FF010224FF08043A7
:1005A000D2F80822C3F858253FE7274AD35C002B2E
:1005B0003FF43BAFF0E7254A0123C2F80435D2F8F7
:1005C0000034002BFBD04FF0102312211F4AC3F838
:1005D0000012D2F80034002BFBD04FF01023122170
:1005E0001A4AC3F80412D2F80034002BFBD00023BF
:1005F0001649C2F80435D1F80034002BFBD0BFF304
:100600004F8F0549124BCA6802F4E0621343CB6076
:10061000BFF34F8F00BFFDE700ED00E000000020BA
:100620000090D00300C0004050090000005000407E
:10063000488103005009000000F00040500900000C
:1006400050090000009002404809000000E001400D
:100650000400FA05002301461A46184600F0A0B827
:1006600008B5074B044613B1002100F0EFF8054B25
:100670001868836A03B19847204600F04BF900BF21
:100680004D0800005809000038B5084B084D5B1BA9
:100690009C1007D0043B1D44013C55F80439984791
:1006A000002CF9D1BDE8384000F03CB970000020C2
:1006B0006C00002070B50D4E0D4D761BB61006D0A7
:1006C000002455F8043B01349847A642F9D1094E5D
:1006D000094D761B00F020F9B61006D0002455F81D
:1006E000043B01349847A642F9D170BD6800002050
:1006F000680000206C00002068000020830730B5EF
:1007000048D0541E002A3FD0CAB2034601E0013C43
:100710003AD303F8012B9D07F9D1032C2DD9CDB283
:1007200045EA05250F2C45EA054536D9A4F1100206
:1007300022F00F0C03F1200EE6444FEA121C03F1E5
:10074000100242E9045542E9025510327245F8D1CF
:100750000CF1010214F00C0F03EB021204F00F0C69
:1007600013D0ACF1040323F003030433134442F821
:10077000045B9342FBD10CF003042CB1CAB21C44BD
:1007800003F8012B9C42FBD130BD64461346002C7C
:10079000F4D1F9E703461446BFE71A46A446E0E75A
:1007A000F0B5264C256885B0064605B36C681F2C4D
:1007B00041DCA6B1D5F8880048B3D0F8007140F804
:1007C00024204FF0010C0CFA04FC00EB84024CEAEC
:1007D0000707022EC0F80071C2F8803010D0A31CA9
:1007E00001346C6045F82310002005B0F0BD1448BA
:1007F000144D25600028D9D00068C5F88800D5E7D9
:10080000D0F8043143EA0C03C0F80431E7E70E489E
:100810000191CDE9022370B14FF48470AFF30080F1
:1008200048B10027C0E94077DDE902236C680199EF
:10083000C5F88800C3E74FF0FF30D6E71801002065
:10084000000000008C000020000000002DE9F84F9F
:10085000DFF8BCA0DAF800702DED028BE7B108EEEE
:10086000100A89467D68D7F888806C1E14D407EB7F
:100870008506043608EB8505B9F1000F10D0B8F1F4
:10088000000F02D0EB6F4B450AD0013C631CA5F171
:100890000405A6F10406EFD1BDEC028BBDE8F88F8C
:1008A0007B683268013BA34216BF00237C60336043
:1008B000002AEAD0D7F804B0B8F1000F1AD0D8F85F
:1008C0000001012303FA04F1014213D0D8F8040116
:1008D000014218D155F8041C18EE100A90477A68A6
:1008E0005A450BD1DAF80030BB42CED01F46002F5C
:1008F000B8D1D1E790477A685A45F3D0DAF800705A
:10090000002FAFD1C8E755F8040C9047E7E700BFC8
:1009100018010020FEE700BFF8B500BFF8BC08BC16
:100920009E467047F8B500BFF8BC08BC9E467047AD
:100930000D0E0F100000000000000000000000007D
:100940000338FDD8704700000000000001010000DE
:10095000010000000000000008000020000000006E
:0809600028F9FF7F01000000EF
:100968000090D003080000200000000000000000F4
:10097800000000000000000000000000000000006F
:10098800000000000000000000000000000000005F
:10099800000000000000000000000000000000004F
:1009A800000000000000000000000000000000003F
:1009B800000000000000000000000000000000002F
:1009C8000000000000000000690200004102000071
:04000003000002F9FE
:00000001FF
